:020000040800F2
:100000000000022091260008492100085121000823
:1000100055210008592100085D210008000000005A
:1000200000000000000000000000000051A30008D4
:100030006121000800000000E1A300089DA0000865
:10004000E1260008E1260008E1260008E126000874
:10005000E1260008E1260008E1260008E126000864
:10006000E1260008E1260008E126000865210008D5
:1000700071210008E1260008E1260008E1260008B9
:10008000E1260008E12600087D210008E12600089D
:1000900099210008E1260008E1260008E126000871
:1000A000E1260008E1260008E1260008E126000814
:1000B000E1260008E1260008E1260008E126000804
:1000C000E1260008E1260008E1260008E1260008F4
:1000D000E1260008E1260008E1260008A521000825
:1000E000E1260008E1260008E1260008E1260008D4
:1000F000E1260008E1260008E1260008E1260008C4
:10010000E1260008E1260008E1260008E1260008B3
:10011000E1260008E1260008E1260008E1260008A3
:10012000E1260008E1260008E1260008E126000893
:10013000E1260008E1260008E1260008E126000883
:10014000E1260008E1260008E1260008E126000873
:10015000E1260008E1260008E1260008E126000863
:10016000E1260008E1260008E1260008E126000853
:10017000E1260008E1260008B1210008E126000878
:10018000E1260008E1260008E1260008E126000833
:10019000E126000800000000E1260008E126000832
:1001A000E1260008E1260008E1260008E126000813
:1001B000E1260008E1260008E1260008E126000803
:1001C000E1260008E1260008E1260008E1260008F3
:0801D000E1260008E126000809
:1002000010B5054C237833B9044B13B10448AFF350
:1002100000800123237010BDC80B002000000000E7
:10022000AC33010808B5034B1BB103490348AFF3D6
:10023000008008BD00000000CC0B0020AC3301089A
:1002400081F0004102E000BF83F0004330B54FEA87
:1002500041044FEA430594EA050F08BF90EA020FF4
:100260001FBF54EA000C55EA020C7FEA645C7FEA87
:10027000655C00F0E2804FEA5454D4EB5555B8BFAA
:100280006D420CDD2C4480EA020281EA030382EA1B
:10029000000083EA010180EA020281EA0303362DAD
:1002A00088BF30BD11F0004F4FEA01314FF4801C80
:1002B0004CEA113102D0404261EB410113F0004F92
:1002C0004FEA03334CEA133302D0524263EB430349
:1002D00094EA050F00F0A780A4F10104D5F1200EE7
:1002E0000DDB02FA0EFC22FA05F2801841F1000142
:1002F00003FA0EF2801843FA05F359410EE0A5F116
:1003000020050EF1200E012A03FA0EFC28BF4CF046
:10031000020C43FA05F3C01851EBE37101F00045FC
:1003200007D54FF0000EDCF1000C7EEB00006EEB09
:100330000101B1F5801F1BD3B1F5001F0CD3490893
:100340005FEA30004FEA3C0C04F101044FEA4452EA
:1003500012F5800F80F09A80BCF1004F08BF5FEA71
:10036000500C50F1000041EB045141EA050130BD51
:100370005FEA4C0C404141EB0101013C28BFB1F563
:10038000801FE9D291F0000F04BF01460020B1FAAE
:1003900081F308BF2033A3F10B03B3F120020CDA81
:1003A0000C3208DD02F1140CC2F10C0201FA0CF05F
:1003B00021FA02F10CE002F11402D8BFC2F1200CC4
:1003C00001FA02F120FA0CFCDCBF41EA0C0190407A
:1003D000E41AA2BF01EB0451294330BD6FEA0404C3
:1003E0001F3C1CDA0C340EDC04F11404C4F12002AE
:1003F00020FA04F001FA02F340EA030021FA04F3C0
:1004000045EA030130BDC4F10C04C4F1200220FA16
:1004100002F001FA04F340EA0300294630BD21FA54
:1004200004F0294630BD94F0000F83F4801306BF1A
:1004300081F480110134013D4EE77FEA645C18BF0E
:100440007FEA655C29D094EA050F08BF90EA020FA5
:1004500005D054EA000C04BF1946104630BD91EA9D
:10046000030F1EBF0021002030BD5FEA545C05D1A0
:100470004000494128BF41F0004130BD14F58004DF
:100480003CBF01F5801130BD01F0004545F0FE4153
:1004900041F470014FF0000030BD7FEA645C1ABF88
:1004A000194610467FEA655C1CBF0B46024650EABF
:1004B000013406BF52EA033591EA030F41F40021EB
:1004C00030BD00BF90F0000F04BF0021704730B571
:1004D0004FF4806404F132044FF000054FF0000146
:1004E00050E700BF90F0000F04BF0021704730B507
:1004F0004FF4806404F1320410F0004548BF4042DC
:100500004FF000013EE700BF42004FEAE2014FEA30
:1005100031014FEA02701FBF12F07F4393F07F4F0B
:1005200081F06051704732F07F4208BF704793F00E
:100530007F4F04BF41F40021704730B54FF4607421
:1005400001F0004521F000411CE700BF50EA010224
:1005500008BF704730B54FF000050AE050EA0102CD
:1005600008BF704730B511F0004502D5404261EB3D
:1005700041014FF4806404F132045FEA915C3FF47E
:10058000D8AE4FF003025FEADC0C18BF03325FEA1B
:10059000DC0C18BF033202EBDC02C2F1200300FACC
:1005A00003FC20FA02F001FA03FE40EA0E0021FAF1
:1005B00002F11444BDE600BF70B54FF0FF0C4CF4DF
:1005C000E06C1CEA11541DBF1CEA135594EA0C0F91
:1005D00095EA0C0F00F0DEF82C4481EA030621EACC
:1005E0004C5123EA4C5350EA013518BF52EA033507
:1005F00041F4801143F4801338D0A0FB02CE4FF0B9
:100600000005E1FB02E506F00042E0FB03E54FF0E8
:100610000006E1FB03569CF0000F18BF4EF0010EE0
:10062000A4F1FF04B6F5007F64F5407404D25FEADC
:100630004E0E6D4146EB060642EAC62141EA55518F
:100640004FEAC52040EA5E504FEACE2EB4F1FD0CD1
:1006500088BFBCF5E06F1ED8BEF1004F08BF5FEA4F
:10066000500E50F1000041EB045170BD06F0004601
:1006700046EA010140EA020081EA0301B4EB5C04AE
:10068000C2BFD4EB0C0541EA045170BD41F48011A6
:100690004FF0000E013C00F3AB8014F1360FDEBFCB
:1006A000002001F0004170BDC4F10004203C35DAA7
:1006B0000C341BDC04F11404C4F1200500FA05F32A
:1006C00020FA04F001FA05F240EA020001F00042CB
:1006D00021F0004110EBD37021FA04F642EB060141
:1006E0005EEA430E08BF20EAD37070BDC4F10C046B
:1006F000C4F1200500FA04F320FA05F001FA04F22F
:1007000040EA020001F0004110EBD37041F100011A
:100710005EEA430E08BF20EAD37070BDC4F1200525
:1007200000FA05F24EEA020E20FA04F301FA05F28D
:1007300043EA020321FA04F001F0004121FA04F235
:1007400020EA020000EBD3705EEA430E08BF20EA05
:10075000D37070BD94F0000F0FD101F0004640003F
:1007600041EB010111F4801F08BF013CF7D041EAC1
:10077000060195F0000F18BF704703F000465200C5
:1007800043EB030313F4801F08BF013DF7D043EA96
:100790000603704794EA0C0F0CEA135518BF95EA4C
:1007A0000C0F0CD050EA410618BF52EA4306D1D1D3
:1007B00081EA030101F000414FF0000070BD50EAF2
:1007C000410606BF1046194652EA430619D094EA7C
:1007D0000C0F02D150EA013613D195EA0C0F05D166
:1007E00052EA03361CBF104619460AD181EA0301BA
:1007F00001F0004141F0FE4141F470014FF0000072
:1008000070BD41F0FE4141F4780170BD70B54FF00C
:10081000FF0C4CF4E06C1CEA11541DBF1CEA13558C
:1008200094EA0C0F95EA0C0F00F0A7F8A4EB05046E
:1008300081EA030E52EA03354FEA013100F0888065
:100840004FEA03334FF0805545EA131343EA12632E
:100850004FEA022245EA111545EA10654FEA0026E3
:100860000EF000419D4208BF964244F1FD0404F59C
:10087000407402D25B084FEA3202B61A65EB0305F8
:100880005B084FEA32024FF480104FF4002CB6EBB5
:10089000020E75EB030E22BFB61A754640EA0C0035
:1008A0005B084FEA3202B6EB020E75EB030E22BF75
:1008B000B61A754640EA5C005B084FEA3202B6EBB6
:1008C000020E75EB030E22BFB61A754640EA9C0075
:1008D0005B084FEA3202B6EB020E75EB030E22BF45
:1008E000B61A754640EADC0055EA060E18D04FEA03
:1008F000051545EA16754FEA06164FEAC30343EAA3
:1009000052734FEAC2025FEA1C1CC0D111F4801F6F
:100910000BD141EA00014FF000004FF0004CB6E768
:1009200011F4801F04BF01430020B4F1FD0C88BF07
:10093000BCF5E06F3FF6AFAEB5EB030C04BFB6EB12
:10094000020C5FEA500C50F1000041EB045170BD05
:100950000EF0004E4EEA113114EB5C04C2BFD4EB32
:100960000C0541EA045170BD41F480114FF0000EB6
:10097000013C90E645EA060E8DE60CEA135594EA32
:100980000C0F08BF95EA0C0F3FF43BAF94EA0C0F35
:100990000AD150EA01347FF434AF95EA0C0F7FF4AA
:1009A00025AF104619462CE795EA0C0F06D152EAFE
:1009B00003353FF4FDAE1046194622E750EA4106E2
:1009C00018BF52EA43067FF4C5AE50EA41047FF4F3
:1009D0000DAF52EA43057FF4EBAE12E74FF0FF3C58
:1009E00006E000BF4FF0010C02E000BF4FF0010C29
:1009F0004DF804CD4FEA410C7FEA6C5C4FEA430CA2
:100A000018BF7FEA6C5C1BD001B050EA410C0CBFF0
:100A100052EA430C91EA030F02BF90EA020F002052
:100A2000704710F1000F91EA030F58BF994208BFB9
:100A300090422CBFD8176FEAE37040F00100704776
:100A40004FEA410C7FEA6C5C02D150EA013C07D1CD
:100A50004FEA430C7FEA6C5CD6D152EA033CD3D018
:100A60005DF8040B704700BF8446104662468C4612
:100A70001946634600E000BF01B5FFF7B7FF002845
:100A800048BF10F1000F01BD4DF808EDFFF7F4FF6E
:100A90000CBF012000205DF808FB00BF4DF808EDF9
:100AA000FFF7EAFF34BF012000205DF808FB00BF1C
:100AB0004DF808EDFFF7E0FF94BF012000205DF83E
:100AC00008FB00BF4DF808EDFFF7CEFF94BF0120F3
:100AD00000205DF808FB00BF4DF808EDFFF7C4FFEC
:100AE00034BF012000205DF808FB00BF4FEA41023F
:100AF000B2F1E04324BFB3F5001CDCF1FE5C0DD97C
:100B000001F0004C4FEAC0024CEA5070B2F1004FC5
:100B100040EB830008BF20F00100704711F0804FC8
:100B200021D113F13872BCBF01F00040704741F48D
:100B300080114FEA5252C2F11802C2F1200C10FA91
:100B40000CF320FA02F018BF40F001004FEAC12375
:100B50004FEAD32303FA0CFC40EA0C0023FA02F319
:100B60004FEA4303CCE77FEA625307D150EA0133EF
:100B70001EBF4FF0FE4040F44000704701F00040BF
:100B800040F0FE4040F40000704700BF53B94AB93E
:100B9000002908BF00281CBF4FF0FF314FF0FF3085
:100BA00000F074B9ADF1080C6DE904CE00F006F860
:100BB000DDF804E0DDE9022304B070472DE9F047D9
:100BC000089D04468E46002B4DD18A42944669D931
:100BD000B2FA82F252B101FA02F3C2F1200120FA14
:100BE00001F10CFA02FC41EA030E94404FEA1C4862
:100BF000210CBEFBF8F61FFA8CF708FB16E341EA5E
:100C0000034306FB07F199420AD91CEB030306F1E3
:100C1000FF3080F01F81994240F21C81023E634404
:100C20005B1AA4B2B3FBF8F008FB103344EA0344A8
:100C300000FB07F7A7420AD91CEB040400F1FF33BD
:100C400080F00A81A74240F207816444023840EAFA
:100C50000640E41B00261DB1D4400023C5E9004333
:100C60003146BDE8F0878B4209D9002D00F0EF80B6
:100C70000026C5E9000130463146BDE8F087B3FAE9
:100C800083F6002E4AD18B4202D3824200F2F980D1
:100C9000841A61EB030301209E46002DE0D0C5E9D4
:100CA000004EDDE702B9FFDEB2FA82F2002A40F020
:100CB0009280A1EB0C014FEA1C471FFA8CFE012623
:100CC000200CB1FBF7F307FB131140EA01410EFBC7
:100CD00003F0884208D91CEB010103F1FF3802D26E
:100CE000884200F2CB804346091AA4B2B1FBF7F068
:100CF00007FB101144EA01440EFB00FEA64508D98B
:100D00001CEB040400F1FF3102D2A64500F2BB80C7
:100D10000846A4EB0E0440EA03409CE7C6F1200716
:100D2000B34022FA07FC4CEA030C20FA07F401FA5C
:100D300006F31C43F9404FEA1C4900FA06F3B1FBE5
:100D4000F9F8200C1FFA8CFE09FB181140EA01414A
:100D500008FB0EF0884202FA06F20BD91CEB0101E7
:100D600008F1FF3A80F08880884240F28580A8F13F
:100D700002086144091AA4B2B1FBF9F009FB101191
:100D800044EA014100FB0EFE8E4508D91CEB01012F
:100D900000F1FF346CD28E456AD90238614440EAD2
:100DA0000840A0FB0294A1EB0E01A142C846A64652
:100DB00056D353D05DB1B3EB080261EB0E0101FADB
:100DC00007F722FA06F3F1401F43C5E90071002638
:100DD0003146BDE8F087C2F12003D8400CFA02FC8E
:100DE00021FA03F3914001434FEA1C471FFA8CFE9E
:100DF000B3FBF7F007FB10360B0C43EA064300FB8E
:100E00000EF69E4204FA02F408D91CEB030300F12B
:100E1000FF382FD29E422DD9023863449B1B89B2E2
:100E2000B3FBF7F607FB163341EA034106FB0EF36B
:100E30008B4208D91CEB010106F1FF3816D28B4218
:100E400014D9023E6144C91A46EA004638E72E46E4
:100E5000284605E70646E3E61846F8E64B45A9D2DC
:100E6000B9EB020864EB0C0E0138A3E74646EAE74B
:100E7000204694E74046D1E7D0467BE7023B6144F9
:100E800032E7304609E76444023842E7704700BF62
:100E90004A0011D212F5001211D20DD56FF47873F9
:100EA000B3EB62520ED44FEAC12343F0004343EA4E
:100EB000505323FA02F070474FF00000704750EA99
:100EC000013002D14FF0FF3070474FF00000704703
:100ED000844641EA000313F003036DD1403A41D345
:100EE00051F8043B40F8043B51F8043B40F8043B04
:100EF00051F8043B40F8043B51F8043B40F8043BF4
:100F000051F8043B40F8043B51F8043B40F8043BE3
:100F100051F8043B40F8043B51F8043B40F8043BD3
:100F200051F8043B40F8043B51F8043B40F8043BC3
:100F300051F8043B40F8043B51F8043B40F8043BB3
:100F400051F8043B40F8043B51F8043B40F8043BA3
:100F500051F8043B40F8043B51F8043B40F8043B93
:100F6000403ABDD2303211D351F8043B40F8043B33
:100F700051F8043B40F8043B51F8043B40F8043B73
:100F800051F8043B40F8043B103AEDD20C3205D343
:100F900051F8043B40F8043B043AF9D2043208D03B
:100FA000D2071CBF11F8013B00F8013B01D30B88AD
:100FB00003806046704700BF082A13D38B078DD08B
:100FC00010F003038AD0C3F10403D21ADB071CBF5D
:100FD00011F8013B00F8013B80D331F8023B20F8C7
:100FE000023B7BE7043AD9D3013A11F8013B00F800
:100FF000013BF9D20B7803704B7843708B78837088
:101000006046704700000000000000000000000083
:1010100000000000000000000000000000000000D0
:1010200000000000000000000000000000000000C0
:1010300000000000000000000000000000000000B0
:1010400090F800F06DE9024520F007016FF0000C08
:1010500010F0070491F820F040F049804FF00004B0
:101060006FF00700D1E9002391F840F000F108008B
:1010700082FA4CF2A4FA8CF283FA4CF3A2FA8CF3C3
:101080004BBBD1E9022382FA4CF200F10800A4FA2A
:101090008CF283FA4CF3A2FA8CF3E3B9D1E904237E
:1010A00082FA4CF200F10800A4FA8CF283FA4CF3B5
:1010B000A2FA8CF37BB9D1E9062301F1200182FA6F
:1010C0004CF200F10800A4FA8CF283FA4CF3A2FA75
:1010D0008CF3002BC6D0002A04BF04301A4612BA83
:1010E000B2FA82F2FDE8024500EBD2007047D1E986
:1010F000002304F00305C4F100004FEAC50514F015
:10110000040F91F840F00CFA05F562EA05021CBFE5
:1011100063EA050362464FF00004A9E700000000FF
:1011200001F0FF01102A2BDB10F0070F08D010F898
:10113000013B013A8B422DD010F0070F42B3F6D19C
:10114000F0B441EA012141EA014122F007047FF0B5
:1011500000070023F0E80256083C85EA010586EA0C
:10116000010685FA47F5A3FA87F586FA47F6A5FA48
:1011700087F68EB9EED1F0BC01F0FF0102F0070254
:1011800032B110F8013B013A83EA010313B1F8D1FF
:101190000020704701387047002D06BF35460338E0
:1011A000073815F0010F07D1013015F4807F02BF19
:1011B000013015F4C03F0130F0BC0138704700BF6A
:1011C00038B50022002304460D46FFF767FC28B916
:1011D00020462946BDE8384000F00AB8204605F10F
:1011E000004100F005F8404261EB410138BD00BF0D
:1011F000D0B50C4B002206460F46FFF7DDF9FFF78E
:1012000047FE0446FFF75EF9074B0022FFF7D4F9CB
:1012100002460B4630463946FFF716F8FFF738FE10
:101220002146D0BD0000F03D0000F041000000006C
:1012300010B5002494B03C22214604A8CDE9014415
:1012400003940CF011FE26484FF0A0424FF4002307
:10125000C0E90023848304220123C0E90244C0E9D9
:1012600004448261036280F8244080F83840C463FB
:1012700080F8404001F06AFA20BB0023184801932F
:1012800001A902F00DFE20BB164C09209FED127B38
:10129000CDE904400420002301227F24089004A902
:1012A0000F480993CDE906248DED0E7B0C92ADF825
:1012B00034308DF836308DF8403002F0C3FA20B962
:1012C00014B010BD00F018FED7E700F015FE14B002
:1012D00010BD00F011FED7E7840000008000000080
:1012E000E80B00200800900C10B598B020220021D7
:1012F00068460CF0B9FD3C22002108A80CF0B4FDB2
:1013000041484249016000230122C0E90432C0E99A
:1013100002338383036380F83830C36380F840303E
:101320004FF40023436004238361032380F82420C7
:10133000036201220023C0E90A2301F007FA002812
:1013400043D12BA3D3E90023CDE9002301227F233E
:10135000CDE902232C48042200236946CDE9042369
:1013600001F020FD00283DD1294A27480C23694679
:10137000CDE9002301F016FD88BB1FA3D3E90023AC
:1013800021486946CDE9002301F00CFD20BB214C2A
:1013900009209FED1B7BCDE908400420002301229A
:1013A0007F240C9008A918480D93CDE90A248DEDEF
:1013B000127B1092ADF844308DF846308DF85030E5
:1013C00002F040FA20B918B010BD00F095FDB8E762
:1013D00000F092FD18B010BD00F08EFDD7E700F0D0
:1013E0008BFDCAE700F088FDBEE700BFAFF30080C9
:1013F0000008302E060000008000501D1200000082
:101400008400000080000000580C00200001005003
:10141000400020190400600810B50446A0B0002167
:1014200054220BA8CDE90611CDE908110A910CF060
:101430001BFD2368B3F1A04F04D0484A93423BD030
:1014400020B010BD4FF400424FF000530BA80B9298
:101450001C9304F05BFD00287AD1414A13680133E4
:10146000012B136009D13F4BDA6C42F40052DA646D
:10147000DB6C03F400530193019B3A4BD86C40F0B2
:101480000100D864DB6C03F001030293002406A979
:10149000062203234FF09040CDE906230894029BD7
:1014A00002F0C4FF22460521122002F0BDFD1220E9
:1014B00002F0F8FD20B010BD4FF400424FF0005391
:1014C0000BA80B921C9304F021FD002843D1244A61
:1014D00013680133012B136009D1224BDA6C42F4FB
:1014E0000052DA64DB6C03F400530393039B1D4B3F
:1014F0001D48DA6C42F00402DA64DA6C02F004028D
:101500000492049ADA6C42F00102DA64DB6C03F0B4
:1015100001030024059306A923220323CDE9062312
:101520000894059B02F082FF032306A902224FF0D4
:101530009040CDE90623089402F078FF2246052169
:10154000122002F071FD122002F0ACFD20B010BD9F
:1015500000F0D2FC81E700F0CFFCB8E700010050BA
:10156000E40B0020001002400008004808B5304B92
:10157000984222D02F4B98420AD02F4B984238D015
:101580002E4B984241D0BDE808402D480BF05CBC82
:101590002C4B2B48D3ED007AB6EE007AF4EEC77AE6
:1015A000F1EE10FA55BF77EEC77A0022C3ED007A4C
:1015B0001A60BDE808400BF047BC224B224AD3ED2D
:1015C000007A92ED027ADFED216A1D48B6EE006ADC
:1015D00077EE867A27EE267AF4EE477AF1EE10FA65
:1015E000C8BFF0EE477AC3ED007ABDE808400BF0C3
:1015F0002BBC154890F81432032BC4D0DFED140A2D
:10160000B6EE000A0BF0B8FFBDE70329BBD10E48C8
:1016100090F81432032B04D080F814120BF002FF60
:10162000B1E7042380F814320BF01CFFABE700BFD6
:1016300014710020407100206C710020987100200E
:10164000107200200C000020207200203ACD133FC1
:1016500000000000F0B52DED028B194D194C1A4F0A
:101660009FED1A8A83B005F1080605E022600BF0B1
:10167000EBFB012008F09AFD314638460BF042FAA8
:10168000012001F051F8D5ED020A114860EE880AF8
:10169000B1EE600ACDED010A8DED000A0CF0A0FA62
:1016A000DDED010A9DED000A0A480CF099FA236865
:1016B00009480133322B4FF00002D7DC2360D8E712
:1016C00020720020D40C0020E47100208105053F29
:1016D000A4720020DC7200200872002008B50BF014
:1016E000E9FA052001F020F8012008F05FFDF6E797
:1016F00010B50BF081F9174A174803210BF0CAFA0D
:10170000144A164803210BF0C5FA124A1448032163
:101710000BF0C0FA0F4A134803210BF0BBFA124B2F
:101720001B7803B9FEE7114911484FF4806206F0B7
:10173000F5FF104A1048002108F0EAFC0F4B104A50
:10174000044600210F481C6008F0E2FC0E4B1860B4
:1017500010BD00BF6D1500081471002040710020FD
:101760006C71002098710020E4710020E00C0020D2
:10177000041300207434010855160008C40C00201E
:1017800098340108DD160008C80C00200368B3F186
:10179000A04F00D0704770B55F4D2B78002B72D0F2
:1017A0005E4C5F485F4E604D0122082102F03CFF15
:1017B00023682046984720460BF07CFED4F8881119
:1017C00004F5E2700BF028FDD4ED817A9FED577A95
:1017D00094F8143267EE877A032BC4ED697A71D0DE
:1017E0005348E3690360236A436023698360636944
:1017F000C360A3680361D4F89C314361D4F8A0317D
:101800008361D4F868313268C361D4F86C31026303
:101810000362626BD4F8703142634362D4F884206F
:10182000D4F8BC3082638362D4F88820D4F8C03006
:10183000C263C3623F4A2968236B4364D4F8F4301F
:101840001268016483643C49D4F8F8300265C364CB
:10185000D4F82C21D4F830310D688265D4F8901179
:10186000E26BC365A36B0566416682667421C0EDB9
:10187000157AC3660AF0C6FDBDE87040284800220C
:10188000082102F0D1BE2D4E092104462C4801F05A
:10189000B5FF7369092103442A48736101F0AEFF63
:1018A000B369294A18441368B061013B002B1360E7
:1018B0001ADD2368B3F1A04F03D12B78002B7FF4FE
:1018C0006FAF70BDD6ED000A95ED000A20460CF012
:1018D000C9F81E4AD4ED697A1368013313601C4AB3
:1018E0001368013313607BE772691A4B2468D117C0
:1018F00083FB02C2C1EBE202726183FB0023C017CB
:10190000C0EBE300B4F1A04F4FF00103B0612B70C6
:1019100033703FF445AF70BDD00C00202072002022
:101920000008004800000020CC0C0020007C9249F8
:10193000140000200800002004000020E4710020B2
:10194000E80B0020580C002010000020DC0C0020C8
:10195000D80C002067666666954B02689A4200D0F4
:10196000704710B5934994480CF096FCB0B1934879
:10197000934C0CF0CFF951EC100BFFF7B7F8E06384
:101980004FF4806200218C480CF06EFABDE81040E4
:1019900089498C484FF4806206F0C0BE8A49864867
:1019A0000CF07AFC50B18948854C0CF0B3F951EC3D
:1019B000100BFFF79BF8C4F88400E1E784497E48E8
:1019C0000CF06AFC50B181487D4C0CF0A3F951EC4D
:1019D000100BFFF78BF8C4F88800D1E77D497648F3
:1019E0000CF05AFCB0B179480CF094F951EC100BA2
:1019F000FFF77CF807EE900AF7EE006A86EEA77A0A
:101A00006F4BC3F8BC00C3F8840083ED327A83EDDA
:101A1000247AB5E7704968480CF03EFCD0B16B48B9
:101A20000CF078F951EC100BFFF760F8644B93ED74
:101A30002F7A93ED216AC3F8C000F7EE007AC7EE63
:101A4000876AC3F8880087EE867AC3ED326A83ED31
:101A5000247A95E7614958480CF01EFC48B160486B
:101A6000604C0CF057F951EC100BFFF73FF8206079
:101A700086E75D4950480CF00FFC48B158485B4C74
:101A80000CF048F951EC100BFFF730F8206077E7C5
:101A9000574949480CF000FC50B15648484C0CF0EE
:101AA00039F951EC100BFFF721F8C4F89C0167E7F6
:101AB000514941480CF0F0FB48B15048504C0CF0F3
:101AC00029F951EC100BFFF711F8206058E74D4948
:101AD00039480CF0E1FB50B14148394C0CF01AF98F
:101AE00051EC100BFFF702F8C4F8F40048E7464940
:101AF00031480CF0D1FB50B13948314C0CF00AF9A7
:101B000051EC100BFEF7F2FFC4F8F80038E73F493C
:101B100029480CF0C1FB48B13D483E4C0CF0FAF8A6
:101B200051EC100BFEF7E2FF206029E73A4922480A
:101B30000CF0B2FB50B13148214C0CF0EBF851ECF9
:101B4000100BFEF7D3FFC4F82C0119E733491A48EC
:101B50000CF0A2FB50B12948194C0CF0DBF851EC09
:101B6000100BFEF7C3FFC4F8300109E72C491248F7
:101B70000CF092FB08B12B4890E72B490E480CF073
:101B80008BFB00283FF4FCAE28480CF0C3F80C484F
:101B900090F81432032B05D0032380F814320BF095
:101BA00041FCEDE6042380F814320BF05BFCE7E621
:101BB00000480040C8330108E00C0020E20C00207F
:101BC0002072002004130020CC330108E50C002013
:101BD000D4330108DC330108E4330108EC33010895
:101BE000E60C002000000020F4330108CC0C00209B
:101BF000FC330108EA0C002008340108E70C00203F
:101C000008000020103401081834010820340108AD
:101C1000E80C0020040000202C34010834340108B2
:101C20003C340108ED0C00204C340108E90C002084
:101C3000134B10B5986C40F0040098649C6C82B013
:101C400004F004040094009C9C6C44F001049C6427
:101C50009B6C03F001030022052101930B20019BE3
:101C600002F0E2F90B2002F01DFA0C2000220521FF
:101C700002F0DAF90C2002B0BDE8104002F012BA0E
:101C8000001002402DE9F04300248DB0CDE9064458
:101C9000CDE908445A4B0A94DA6C5A4DDFF86C913E
:101CA000DFF86C8142F00402DA64DA6C02F00402BC
:101CB0000092009ADA6C42F02002DA64DA6C02F0E8
:101CC00020020192019ADA6C42F04002DA64DA6C86
:101CD00002F040020292029ADA6C42F00102DA64E7
:101CE000DA6C02F001020392039ADA6C42F002020B
:101CF000DA64DA6C02F002020492049ADA6C42F0BE
:101D00000802DA64DB6C03F00803059328462246D8
:101D10004EF60801059B02F087FC224648F220019E
:101D20004FF0904002F080FC22464846042102F029
:101D30007BFC22464046C02102F076FC00260027AC
:101D400006A928464EF608020123CDE90623CDE96F
:101D5000086702F06BFB06A94FF4806203232A4850
:101D60000894CDE9062302F061FB06A92846142257
:101D70000323CDE90623089402F058FB06A9D922D3
:101D800003234FF09040CDE90623089402F04EFB68
:101D900006A948F2200201234FF09040CDE9062326
:101DA000CDE9086702F042FB06A9404641F207323E
:101DB0000323CDE90623089402F038FB284606A940
:101DC0004FF470720023CDE90623089402F02EFB35
:101DD000484606A904220123CDE90623CDE9086778
:101DE00002F024FBC022012306A94046CDE9086782
:101DF000CDE9062302F01AFB0DB0BDE8F08300BF69
:101E0000001002400008004800180048000C00487C
:101E1000000400480000000000B595B03822002101
:101E200006A80CF021F80020CDE90000CDE9020061
:101E3000049003F0F1FB9FED167B022301210322A6
:101E4000CDE90C130E925421062206A88DED067BD7
:101E5000CDE90F31CDE91132139303F063FC08B1E2
:101E600072B6FEE79FED0C7B8DED007B9FED0C7B4A
:101E70000346042168468DED027B049303F0D6FEF1
:101E800008B172B6FEE704F029F815B05DF804FB5E
:101E900021000000000001000F000000030000000E
:101EA000000000000000000008B500F01BFCFFF778
:101EB000B3FFFFF7E7FEFFF7BBFEFFF7B9F9FFF748
:101EC00013FA00F049FA00F019F800F03FF800F0BA
:101ED00003FB0AF0DDF808F0EFF8FFF709FC08F063
:101EE000FDF8FEE7034B02689A4200D0704700F00D
:101EF00009BC00BF0050014072B6FEE710B51148A2
:101F0000114C4FF482720023C0E900424FF470611B
:101F10000122C0E90231C0E904324FF400742021EB
:101F20000722C0E90641C0E90833C0E90A32C0E926
:101F30000C3304F089FA00B910BDBDE81040FFF77A
:101F4000DBBF00BFE01000200030014010B5114899
:101F5000114C4FF482720023C0E900424FF47061CB
:101F60000122C0E90231C0E904324FF4007420219B
:101F70000722C0E90641C0E90833C0E90A32C0E9D6
:101F80000C3304F061FA00B910BDBDE81040FFF752
:101F9000B3BF00BF44110020003C0040000000001F
:101FA00000B502682E498BB000238A42CDE9043384
:101FB000CDE90633089305D02A4B9A4225D00BB0C1
:101FC0005DF804FB03F1804303F504339FED207BB0
:101FD0001A6E254842F480521A661A6E02F4805234
:101FE0000092009ADA6C42F00202DA64DB6C03F0D1
:101FF0000203019304A905238DED047B019A089344
:1020000002F014FA0BB05DF804FB03F5EA339FED20
:10201000127B9A6D154842F400429A659A6D02F45B
:1020200000420292029ADA6C42F00402DA64DB6C3B
:1020300003F00403039304A906238DED047B039AA4
:10204000089302F0F3F90BB05DF804FBAFF30080E6
:102050003800000002000000001400000200000030
:1020600000300140003C00400004004800080048E7
:102070000F4B10B5186E40F0010018661C6E82B050
:1020800004F001040094009C9C6D44F080549C6515
:102090009B6D03F08053019300220F216FF001002C
:1020A000019B01F0C1FF02B0BDE8104003F032BB5C
:1020B000001002401F4B70B51A6E1F4C42F4801284
:1020C0001A661B6E88B003F4801301A902930646BA
:1020D00003A8029B03F0E0FE03F0CCFE174A184968
:1020E000A2FB00239B0C013B0022C4E90013204605
:1020F00040F2E7332261A260E36004F097FC0546FA
:1021000010B1284608B070BD204604F033FD0546E6
:102110000028F6D14E2001F0C5FF0F2E01D9012570
:10212000EFE72A4631464E2001F07EFF054B1E6048
:10213000E7E700BF00100240A811002083DE1B4328
:10214000005001409000002008B503F0D1FEFEE7EA
:10215000FEE700BFFEE700BFFEE700BFFEE700BFEF
:10216000704700BF014802F013B900BFA41200205D
:10217000014802F00DB900BF4412002008B5044820
:1021800000F0B6FCBDE80840024800F0B1BC00BF5A
:10219000E80B0020580C0020014802F04BBB00BFA8
:1021A000186C0020014805F05BBC00BF0413002040
:1021B000014804F0BDBF00BFA811002001207047F6
:1021C00008B50BF0ABFD162303604FF0FF3008BDE0
:1021D00008B50BF0A3FD16230360FEE770B5161ECD
:1021E00007DD0C468D19AFF3008004F8010BA54202
:1021F000F9D1304670BD00BF70B5161E07DD0C4624
:102200008D1914F8010B00F033FAAC42F9D13046C5
:1022100070BD00BF4FF0FF30704700BF4FF4005358
:102220004B600020704700BF0120704700207047BE
:1022300010B50C4C0C4B0D492268591A2AB11044A8
:10224000884207D82060104610BD094A2260104419
:102250008842F7D90BF062FD0C234FF0FF32036088
:10226000104610BDF41100200000022000060000FE
:1022700098740020034AD2F8883043F47003C2F8FF
:102280008830704700ED00E0094B02689A4200D0A8
:10229000704703F5644382B01A6E42F400621A6616
:1022A0001B6E03F400630193019B02B0704700BFF3
:1022B000002C0140D0B5264A016888B00023914225
:1022C000CDE90233CDE90433069301D008B0D0BD87
:1022D00003F1804303F504330624DA6C1D4842F011
:1022E0000202DA64DA6C02F002020092009ADA6CFE
:1022F00042F00102DA64DB6C069403F001030193FF
:102300004FF4C04202A90223CDE90223019B02F04F
:102310008DF84FF400400221CDE90201042300268C
:10232000002702A90B480693CDE9046702F07EF866
:102330004FF4E062022302A94FF09040CDE9046718
:10234000CDE90223069402F071F808B0D0BD00BFB9
:10235000002C01400004004810B500249EB0342237
:10236000214610A8CDE90544CDE90144CDE9094451
:10237000CDE90B44CDE90D440494009408940794EE
:102380000BF072FD5248534A2023C0E900248360B9
:1023900041F268024FF48073C0E903230123C0E9CE
:1023A000053404F043FB002864D14FF480534848BF
:1023B000049304A904F0D0FD002877D1444804F028
:1023C0001DFC00286FD100237022CDE90023404876
:1023D00000236946029305F097F9002860D1602038
:1023E0000021CDE9080100200021CDE90A01CDE955
:1023F0000C01002236480E9208A904F0CDFF0028F7
:102400004BD13348042208A904F0C6FF002841D16B
:102410002F48082208A904F0BFFF002837D17022F6
:1024200041F25E03CDE90823294808A90C2204F0F3
:10243000B3FF48BB9FED207B8DED127B9FED207B92
:102440008DED147B9FED207B00220023002420488B
:102450001C9410A9CDE91023CDE916238DED187B2E
:10246000CDE91A2305F0ACF938B91948FFF722FF76
:102470001EB010BDFFF740FD97E7FFF73DFD144884
:10248000FFF718FF1EB010BDFFF736FDD2E7FFF7CC
:1024900033FDC4E7FFF730FDBAE7FFF72DFDB0E7E6
:1024A000FFF72AFD9BE7FFF727FD8CE7FFF724FDE9
:1024B00084E700BFAFF300800000000014000000BC
:1024C00000000000002000000000000000000002EA
:1024D000F8110020002C014010B51E481E4C1F4969
:1024E00000230C22C0E90041C0E90233C0E90432F4
:1024F000C0E90633C0E90833836205F0E1FF70B933
:102500001448002106F086F888B91248002106F028
:10251000C3F8A0B90F4806F05FF8B8B910BDFFF7CF
:10252000EBFC0C48002106F075F80028EDD0FFF711
:10253000E3FC0848002106F0AFF80028EAD0FFF7D6
:10254000DBFC044806F048F80028E7D0BDE810405E
:10255000FFF7D2BC041300200048004000093D00F2
:1025600070B504469CB00021542207A8CDE90211A1
:10257000CDE9041106910BF077FC364B22689A42A4
:1025800001D01CB070BD042307A8079303F0BEFC64
:10259000002855D1304B31489A6D314E42F480229B
:1025A0009A659A6D02F480220092009ADA6C42F0E9
:1025B0000202DA64DB6C03F0020301934FF4406221
:1025C0000223CDE902230022019B0323CDE904234A
:1025D00002A90723069301F029FF22491D220023A7
:1025E000C6E90012304610218022C6E90213C6E96E
:1025F0000533C6E90733326101F062FD30BB1A4D85
:102600001A49E6671C220023C5E9001228468022E9
:10261000C5E90233C5E90423C5E90633B4622B6278
:1026200001F04EFD78B9002205212720C4F8805022
:10263000AC6201F0F9FC272001F034FD1CB070BD44
:10264000FFF75AFCA6E7FFF757FCECE7FFF754FC4F
:10265000D5E700BF004800400010024000040048D9
:10266000A412002008000240441200201C00024076
:1026700000B583B04FF6FF730190012201A9034812
:1026800005F0FEF8019803B05DF804FB0413002088
:102690000D488546FFF7EEFD0C480D490D4A002315
:1026A00002E0D458C4500433C4188C42F9D30A4A07
:1026B0000A4C002301E013600432A242FBD30BF06A
:1026C00033FBFFF7F1FBFEE70000022000000020D3
:1026D000C40B0020D4420108C80B002094740020D1
:1026E000FEE7000010B5032001F08CFC0F20FFF77F
:1026F000E1FC10B10124204610BD0446FFF7B8FCF0
:10270000204610BD034A0449136809680B4413604E
:10271000704700BF981300208C000020014B186800
:10272000704700BF9813002038B50446FFF7F6FF46
:10273000631C054602D0044B1B681C44FFF7EEFFE8
:10274000431BA342FAD338BD8C00002030B583B0C0
:1027500000230193002800F0DD80C56D0446002DA4
:1027600000F0C58022689368980005D5936823F02F
:10277000204323F03F0393609368D90019D47E4B24
:102780007E481B6891689B09A0FB030321F0104160
:102790009B0921F03F0101335B0041F080519160C2
:1027A0000193019B2BB1019B013B0193019B002BEA
:1027B000F9D19368DB0000F18B80E36D43F01003E7
:1027C000E365236E012003432366936813F0040F2F
:1027D000E36D40F08580DD0600F18280E36D23F437
:1027E000817343F00203E3659368D90719D4B2F10A
:1027F000A04F00F0AF80624B9A4200F0B480614974
:1028000003F5806389689B680B435F4989680B43C4
:10281000DB0706D45D498B68656823F47C132B4382
:102820008B60E568E36B94F824102B43A5682B4379
:10283000657F012943EA453343EA014365D0E16AF4
:1028400021B1256B01F4787129430B43D5685049B8
:1028500029400B43D3601369616B23F040630B4342
:10286000136193681D0724D4D16894F83830257F0C
:1028700021F480415B0021F0020143EA85330B43E0
:102880002169D3601369002947D043F48033136171
:10289000D2F8C03023F47F5323F03F030B43C2F838
:1028A000C03094F84030012B43D0136923F001036A
:1028B00013616369012B20D0136B23F00F031363A3
:1028C000E36D23F0030343F00103E36503B030BD80
:1028D000936813F0040F4FF00000E36D3FF47BAFFB
:1028E000E36D012043F01003E36503B030BDFEF754
:1028F00093FD256684F8585034E7116B236A21F064
:102900000F01013B0B431363DAE7A16A013943EA84
:10291000414394E7012003B030BD23F480331361B9
:10292000D2F8C03023F47F5323F03F03C2F8C03005
:10293000B7E71169636CA56C21F4FF6121F0040114
:102940002B430B43E16C0B43216D0B4343F001031D
:102950001361AEE70A49936889680B43D9073FF5CD
:1029600060AF0C4957E74FF0A0439B6891680B4359
:10297000DB073FF556AFF4E788000020632D3E05E6
:1029800000010050000400500006005000070050F5
:102990000740F0FF000300500368B3F1A04F2DE99A
:1029A000F04105460E466FD04848494A494983429E
:1029B00018BF0A46AC699768082C07F01F070AD0B1
:1029C000092F63D840F22122FA40D1075ED5DB6897
:1029D000DA0768D40424FFF7A1FE2A688046731C36
:1029E0002CD113681C42FCD0EB6D43F40073EB65F3
:1029F000D36813F4406F0FD16B7F6BB9136818075E
:102A00000AD5EB6D23F48073EB65EB6DD90403D429
:102A1000EB6D43F00103EB652C4B9A4229D003F593
:102A200080639A424DD0082CD06829D010F48040A1
:102A300006BF0C2313600020BDE8F0811368234219
:102A4000D2D1FFF76BFEA0EB0800B0422A680AD98A
:102A500013682340C3D1EA6D85F8583042F0040270
:102A6000EA650320E8E7002EB9D113682340B6D108
:102A7000F1E74FF0A041092F1CD9082CC868D5D127
:102A800014600020BDE8F081114A93E7B3F1A04F34
:102A900019D00E480E4A0F49834218BF0A46936860
:102AA00013F4604F96D0EB6D43F020030120EB65EB
:102AB000BDE8F08140F2212323FA07F7FB07DCD5BC
:102AC000B1E70549D7E7024AE9E700BF0001005036
:102AD0000003005000070050000400500368186C09
:102AE000704700BF704700BF704700BF704700BF0E
:102AF000F8B50368B3F1A04F1E685F68044600F0A4
:102B0000D2809448944A9549834208BF0A46956802
:102B1000B10705F01F0502D5BA0700F1B6807007AE
:102B200040F18680790740F18380E26DD10603D4BD
:102B3000E26D42F40072E265DA6812F4406F21D16E
:102B4000844A934200F0EC8002F58062934200F0E8
:102B50001881DA68900415D41A68110712D59A689A
:102B6000520700F105815A6822F00C025A60E36DA9
:102B700023F48073E365E36DDB0403D4E36D43F07A
:102B80000103E3652046FFF7ADFF23680C221A60BE
:102B9000B00654D5B90652D5E26DD10603D4E26D24
:102BA00042F40052E2656B49DA6CD8688B4202F459
:102BB000C07200F0BB8001F580618B4200F0C280E2
:102BC000D968D2B98A0100F1A3801A68500614D5D9
:102BD000890212D49A68120700F1D7805A6822F04D
:102BE00060025A60E36D23F48053E365E36DD8051A
:102BF00003D4E36D43F00103E3652046FEF7C6FD11
:102C0000236860221A60310601D53A0659D4F005CE
:102C100001D5F90560D4B20501D5B80545D4F10652
:102C200001D5FA0610D4710501D57A0560D4F8BD36
:102C30003207ADD538073FF578AFB006AAD4720693
:102C4000E1D57806DFD5A7E7E26B7AB1002D7CD01D
:102C5000B3F1A04F00F097803E483F4A3F4983427E
:102C600008BF0A46926812F4604F0BD0E36D43F43C
:102C70008063E365236E43F0020323662046FFF77B
:102C800035FF236810221A60CDE7E36DDB0603D41D
:102C9000E36D43F40063E365204600F0D1FD236853
:102CA00002221A603BE72D4A31E7E36D43F48023AB
:102CB000E365204600F0C2FD23684FF400721A60FD
:102CC000ADE7E36D43F48033E3652046FFF70CFF87
:102CD000236880221A609AE7E36D43F40033E365CA
:102CE000204600F0A9FD23684FF480721A6092E735
:102CF000E26D42F48042E265226E4FF4806142F060
:102D00000802226620461960BDE8F84000F092BD36
:102D100000F4406001F4005202437FF46EAF54E7C8
:102D20004FF0A041092D1DD9CA6813E74FF0A04C00
:102D3000002D3FF445AFA91F01297FF641AFDCF814
:102D40000C103EE7DFF818C0F2E7DA68D00799D533
:102D50008CE700BF00010050000700500003005046
:102D60000004005040F22122EA40D207DCD5F0E610
:102D7000E36D43F01003E365236E43F00103236624
:102D800000E70649CEE7064A6CE7E36D43F010031F
:102D9000E365236E43F0010323662EE70004005031
:102DA00000030050F0B590F8582083B00346012A84
:102DB0004FF00000019000F077811A68012083F83D
:102DC00058009468660763D44868840900F01F0CB3
:102DD00004F00C04086802F1300EC0F3846054F86B
:102DE0000E501F2600FA0CF006FA0CFC25EA0C0C1B
:102DF00040EA0C0044F80E009068450778D59068CA
:102E000008689468E407064613D4CF68B24CD2F839
:102E1000B05007F0180C24FA0CF4C0F3120C044064
:102E200025EA0C052C43C2F8B040AC4CA74200F098
:102E3000E880AB490E4259D0B2F1A04F00F0328188
:102E4000A84CA949A948A24218BF01468868A849C8
:102E50008E4200F0E07424D0A6498E4221D0A649CB
:102E60008E4240F05381C00140D4B2F1A04F00F037
:102E700017829C4D9C499D48AA4218BF01468A680A
:102E800022F0E072144344F0807400208C6003E070
:102E9000DA6D42F02002DA65002283F8582003B090
:102EA000F0BD010222D4B2F1A04F00F0128193498B
:102EB0008A421BD18D48924A924D126881689209CC
:102EC000A5FB0252920921F0E07101320C4302EBA2
:102ED0004202920044F4000484600192019A2AB1F3
:102EE000019A013A0192019A002AF9D10020D3E710
:102EF000906810F0080040F082808C680E68B4F191
:102F0000004F00F01E814FEAD65C02F114070CF06E
:102F1000040CC6F304565CF807504FF0070EB4409B
:102F20000EFA06F625EA06052C434CF807405469CC
:102F300024F0004454610F69D568042F2FD002F1AA
:102F40006004C5F3C10554F827E0DFF8BCC16E008A
:102F50000D680EEA0C0C05F0F84545EA0C0C4D69BD
:102F6000B54045EA0C0545F0004544F827500F6987
:102F70008E6954F8275025F08075354344F8275062
:102F80000D7F0E69012D54F8265008BF4FF00070D8
:102F900025F00075284344F82600086831E70868E2
:102FA000146E146EC0F31205C4F38464002D40F057
:102FB000DC80C0F38465AC4200F03A81546E566EFA
:102FC00002F16004C6F3846602F16407AE4200F0C9
:102FD0005581A668A66804F10807C6F38466AE4268
:102FE00000F03A81E668E66804F10C07C6F38464F1
:102FF000A5427FF406AF386820F0004038600868CA
:10300000FFE6BCF1000F52D090FAA0F4002C00F0C3
:10301000EB80B4FA84F4013404F01F04092C40F26C
:10302000E38090FAA0F4002C00F04081B4FA84F41C
:103030000134A40604F0F84490FAA0F5002D00F045
:103040003381B5FA85F5013505F01F05012606FA2D
:1030500005F52C4390FAA0F0002800F02381B0FA87
:1030600080F0013000F01F056FF01D06032010FBFB
:103070000560000540F000702043C60D8C6806F026
:10308000040602F11405C0F3045004FA00F74FF0EF
:10309000070C74590CFA00F024EA00003843705110
:1030A0000E68C6E61049D1E6022003B0F0BD800EDE
:1030B000441C04F01F06092E00F28880A50601209A
:1030C000B04005F0F845054306EB460000052843EF
:1030D000D3E70548EFE600BFFFFF070000007F4091
:1030E000000008800001005000030050000700505D
:1030F000000021C31000C090000052C7000600501D
:1031000088000020632D3E0500F0FF036D498E42CC
:103110007FF4ECAE10F480007FF4E8AE6A498A4296
:103120003FF4E4AE694D01F50071B2F1A04F18BF54
:1031300029468A6822F0E072224342F480028A60C3
:10314000AAE6F50D02F1140405F00405C6F30456D1
:103150002F594FF0070C0CFA06F627EA06062E51F7
:10316000546944F000445461E5E690FAA0F51DB1BD
:10317000B5FA85F5AC425BD0546E566E02F1600430
:10318000C6F3846602F1640790FAA0F51DB1B5FAA2
:1031900085F5AE4272D0A568A66804F10807C6F3AB
:1031A000846690FAA0F51DB1B5FA85F5AE4253D00C
:1031B000E568E56804F10C07C5F3846490FAA0F5AE
:1031C000002D3FF41EAEB5FA85F511E706EB46007B
:1031D000A4061E38012504F0F844000505FA06F699
:1031E00040F00070344347E790FAA0F5002D65D019
:1031F000B5FA85F50135AD0605F0F84590FAA0F46D
:10320000002C59D0B4FA84F4013404F01F040126D0
:1032100006FA04F4254390FAA0F0002849D0B0FA49
:1032200080F4013404F01F0404EB440420054EE74D
:10323000106E144620F0004044F8600F506E08688D
:10324000566EC0F3120502F16407C6F38466002DC2
:103250009AD1C0F38465B9E6386820F00040386040
:10326000E068086804F10C07E468C0F31205C4F3D1
:103270008464002DA2D1C0F38465B9E6386820F0DB
:1032800000403860A0680868A668C0F3120504F121
:103290000807C6F38466002D83D1C0F384659EE6DB
:1032A0000B49ECE50B48E7E60225D2E64FF08064D7
:1032B000C2E64FF440100AE70224ABE74FF0806506
:1032C0009CE700BF000084CB0001005000070050C5
:1032D00000030050000050FE70B582B00022036869
:1032E00001929A68D20734D499682C4A1142044654
:1032F00032D19A6822F0004222F03F0242F00102ED
:10330000B3F1A04F9A6047D02548264A2649834208
:1033100018BF0A4693681B0228D4FFF7FFF92368F9
:103320001A68D607054614D4204E9A68D00704D4EC
:103330009A68324042F001029A60FFF7EFF9431BAE
:10334000022B236802D91A68D10705D51A68D2075B
:10335000EBD5002002B070BDE36D43F01003E365D0
:10336000236E01200343236602B070BD104B114A47
:103370001B689B09A2FB03239B09013303EB430357
:103380009B000193019B002BC7D0019B013B019344
:10339000019B002BF9D1C0E7024ABBE73F00008048
:1033A000000100500003005000070050C0FFFF7FE5
:1033B00088000020632D3E050368B3F1A04F70B56F
:1033C00004464FD03A483B4A3B49834218BF0A461D
:1033D00096689D6815F0040542D194F85830012B89
:1033E0003ED0012384F858302046FFF775FF0028AF
:1033F0003AD1E36D226823F4706323F0010343F4B0
:103400008073E3652A4B9A4206F01F0647D003F506
:1034100080639A4248D01146E36D23F48013E3653C
:10342000E36D13F480531CBF236E23F00603236661
:103430001C2313608A424FF0000384F858301CD0DC
:10344000092E14D9E36D43F48013E365CB689B0127
:1034500005D5E36D23F4405343F48053E36570BD19
:10346000022070BD134AB3E784F8585070BD40F293
:10347000212323FA06F6F507E4D5D368990105D58B
:10348000E36D23F4405343F48053E365936823F0E2
:10349000004323F03F0343F00403936070BD4FF0FB
:1034A000A041002EBCD1B7E70449002EB8D1B3E744
:1034B00000010050000300500007005000040050BD
:1034C00038B503689A68950702D59B68002038BD17
:1034D0009A68D4072BD59A6802F00D02012A044697
:1034E00008D0E36D43F01003E365236E012003432E
:1034F000236638BD9A6822F0004222F03F02032181
:1035000042F002029A601960FFF708F923689B688D
:10351000D90705460BD5FFF701F9401B02282368A0
:1035200002D99A68D207DCD49B68DB07F3D4002069
:1035300038BD00BF70B590F8582082B00023012A32
:10354000019340D0012380F8583004460D46FFF720
:10355000B7FFF0B9E26D266822F4885222F0020229
:1035600042F00202E265B368184A23F0404305F0D6
:10357000804123F03F030B4343F00043B360B36843
:10358000002B0FDBE36D23F0030343F00103E3653E
:1035900003E0E36D43F01003E365002384F8583043
:1035A00002B070BD019B01330193019B9342E6D9A8
:1035B000E36D23F01203002243F01003E36584F867
:1035C00058200120ECE7022002B070BD01DE0400AB
:1035D00038B50368B3F1A04F044651D03848394A92
:1035E0003949834218BF0A4695689A6811073DD445
:1035F000DA68DB6C13F4C07F3AD094F85830012BB2
:1036000034D0012384F858302046FFF765FE0028A7
:1036100038D1E36DDA0549BF236E206623F0080335
:103620002366E36D226823F4405323F0010343F43F
:103630008053E365224B9A4228D003F580639A4277
:1036400024D0E36D23F48013E3656021002311602F
:1036500084F85830D3689B0107D4936823F0004363
:1036600023F03F0343F00803936038BD022038BDC8
:10367000002AC2DBE36D43F020030120E36538BD7F
:10368000104AB1E7002384F8583038BD15F01F0503
:103690000DD06023063D1360012D4FF0000384F828
:1036A0005830D7D9E36D43F48013E36538BDE36D3B
:1036B00023F48013E3656023136084F85850C9E74E
:1036C00000010050000300500007005038B50368A7
:1036D000B3F1A04F044669D04448454A4549834266
:1036E00008BF0A4695689A68100755D4DA68DB6CFB
:1036F00013F4C07F52D094F85830012B4CD00123E2
:1037000084F858302046FFF7E7FD002850D1E36DDC
:10371000D90549BF236E206623F008032366E26DB6
:10372000236822F4405222F0010242F48052E26502
:103730002E4A934205F01F054ED002F58062934257
:103740004FD01946E26D22F48012E26560221A60C1
:10375000002284F85820DA68920203D55A6842F4AD
:1037600080625A60A269082A5A682DD022F040026D
:103770005A605A6842F020025A608B4200D0DDB98C
:10378000DA68920107D49A6822F0004222F03F02E0
:1037900042F008029A6038BD022038BD002AAADB38
:1037A000E36D43F020030120E36538BD114A99E73A
:1037B000002384F8583038BD063D012DE0D9E36D73
:1037C00043F48013E36538BD22F020025A605A6842
:1037D00042F040025A60D0E74FF0A041002DB5D131
:1037E000B0E70549002DB1D1ACE700BF00010050A2
:1037F00000070050000300500004005040F2152361
:1038000099420BD040F21B3399420FD040F20F1374
:10381000994207D00368D3F8800070470368D3F853
:10382000880070470368D3F8840070470368D3F8B2
:103830008C007047704700BF704700BF704700BFE3
:10384000704700BF2DE9F04190F8583082B0002257
:10385000012B0192426900F09981012380F85830D0
:10386000E2B10B6A012B19D0846E002C40F0368136
:103870008A6A002A00F065825D1ECC6A02F07C0331
:103880002B432343D1E90024856604F01F05C2F3CE
:103890008464AC401C434466036805E04B68092B14
:1038A00000F008810A6803689C68270710D491F823
:1038B0002540002C40F0F58091F82440DD6891F817
:1038C0002660240525F4401544EA46542C43DC6068
:1038D0009C6814F0040474D09C6800249D68EE0772
:1038E00014D4CF68AE4DD3F8B06007F0180C25FAA9
:1038F0000CF5C2F3120E154026EA0E0C45EA0C0533
:10390000C3F8B050A74DAF4200F00D81A6490A425E
:1039100029D0B3F1A04F00F03781A44EA449A54DA2
:10392000B34218BF2946A44D8968AA4201F0E07647
:1039300020D0A24DAA421DD0A14DAA4240F04C81F8
:10394000CD0110D4B3F1A04F00F04F82974D984AAB
:103950009849AB4218BF0A46936823F0E07333439B
:1039600043F080739360002380F85830204602B003
:10397000BDE8F0810A02F6D4B3F1A04F00F037821F
:10398000904A9342EFD18B498A688F4B22F0E072C4
:10399000324342F400021B688A608C4A9B09A2FBF6
:1039A00003239B0903EB43039B0018330193019B03
:1039B000002BD8D0019B013B0193019B002BF9D137
:1039C000D1E79D6815F0080588D18C6A002C40F07D
:1039D0009B8091F82540012CDC680CBF44F00074FA
:1039E00024F00074DC60002491F83060012E1E6920
:1039F00000F0658126F002061E618E68B6F1004F68
:103A000000F049814FEAD25C0CF0040C03F114077A
:103A1000C2F304524FF0070E96400EFA02FE5CF815
:103A2000072022EA0E0216434CF807605A6922F07A
:103A300000425A61D1F810C0DE68BCF1040F00F0FA
:103A4000E58003F16002C6F3C10652F82C800F68CE
:103A50004FEA460E5E4E07F0F84708EA060637437F
:103A60004E6906FA0EF63E4346F0004642F82C60D8
:103A7000D1F810C08F6952F82C6026F080763E4352
:103A800042F82C600E7F0F69012E52F8276008BFA4
:103A90004FF0007526F00076354342F827500A684B
:103AA0001CE7DC6891F8265024F4401444EA45549D
:103AB000DC600DE78B6A0A68002B6CD0CC6A03F0DF
:103AC0007C03550C05F4785523431D430368414E90
:103AD000DC6C34402C43DC644566E5E60A684B68E0
:103AE000C2F3846503F01F039D40436E013C1D43F8
:103AF000846603684566002C7FF4D6AEDC6C354ED8
:103B000034402543DD64CFE6CC6A002C3FF461AF3E
:103B100091F82540012C00F06381DC6824F00074EA
:103B2000DC602C4660E7BEF1000F40F0D380920EBF
:103B3000551C05F01F0CBCF1090F40F205810CEB80
:103B40004C02AD061E3A012605F0F845120506FAAC
:103B50000CFC42F0007245EA0C052A43D70D8D6833
:103B600007F0040703F11406C2F3045205FA02FC3D
:103B70004FF0070EBD590EFA02F225EA020242EAA0
:103B80000C02BA510A68C1E60949CCE60224204673
:103B900002B0BDE8F081550C05F4785596E700BFFA
:103BA000FFFF070000007F40000008800001005078
:103BB0000003005000070050000021C31000C09017
:103BC000000052C70006005088000020632D3E050B
:103BD00000F0FF0300401004AC4DAA427FF4C3AED6
:103BE00049023FF5C0AEAA4A93423FF4BCAEA94990
:103BF00002F50072B3F1A04F18BF0A46936823F094
:103C0000E073334343F480039360ACE61A6E0A68B2
:103C10001D6EC2F31206C5F38465002E00F0A0806D
:103C200092FAA2F626B1B6FA86F6B54200F0E18025
:103C30005D6E5F6E03F16005C7F3846703F1640C8A
:103C400092FAA2F626B1B6FA86F6B74200F0E680FE
:103C5000AE68AF6805F1080CC7F3846792FAA2F664
:103C600026B1B6FA86F6B74200F0ED80EE68EF684E
:103C70000C35C7F3846792FAA2F6002E3FF42EAEFD
:103C8000B6FA86F6BE427FF429AE2A6822F00042D8
:103C90002A600A6822E6D70D07F0040703F114062C
:103CA000C2F304524FF0070C0CFA02FCBA5922EA94
:103CB0000C02BA515A6942F000425A61BAE626F43F
:103CC000FF7CD1E90D673E4346EA0C0646F002064A
:103CD0001E6192E692FAA2F5002D5DD0B5FA85F547
:103CE000013505F01F05092D56D992FAA2F5002DD0
:103CF00000F0C980B5FA85F50135AD0605F0F84547
:103D000092FAA2F6002E00F0BC80B6FA86F60136D2
:103D100006F01F06012707FA06F6354392FAA2F2CB
:103D2000002A00F0AC80B2FA82F2013202F01F06E3
:103D30006FF01D07032212FB0672120542F000729B
:103D40000BE7013B1D469DE5AE06012202FA0CF28F
:103D500006F0F84616430CEB4C0212053243FDE622
:103D6000C2F38466B54244D05D6E5F6E03F16005B8
:103D7000C7F3846703F1640CB7424FD0AF68AF68F4
:103D800005F1080CC7F38467B7425CD0EF68EF68B1
:103D90000C35C7F3846775E792FAA2F6002E68D057
:103DA000B6FA86F60136B60606F0F84692FAA2F59D
:103DB000002D5CD0B5FA85F5013505F01F0501270A
:103DC00007FA05F52E4392FAA2F2002A54D0B2FA6D
:103DD00082F5013505F01F0505EB45052A05BDE710
:103DE000C66D46F02006C665FEE52B4AB4E52A49B5
:103DF000CAE51A6E1D4622F0004245F8602F5A6E41
:103E00000A685F6EC2F31206C7F3846703F1640C9D
:103E1000002E7FF415AFC2F38466ADE7DCF8002016
:103E200022F00042CCF80020AA680A68AF68C2F30A
:103E30001206C7F3846705F1080C002E7FF40EAF5D
:103E4000C2F38466A0E7DCF8002022F00042CCF840
:103E50000020EA680A68EF68C2F312060C35C7F35F
:103E60008467002E7FF407AFC2F384660AE7022559
:103E7000A8E74FF0806699E74FF440126EE7074AD3
:103E80006BE6022649E74FF0806539E7000084CBF6
:103E9000000100500007005000030050000050FED9
:103EA00070B490F858300E68012B9DB057D002685E
:103EB00000240123B2F1A04F189480F858301994CF
:103EC0000CD04A4DAA4248D0C26D80F8584042F00A
:103ED0002002C26518461DB070BC7047444B9B68F9
:103EE0005B070CD59368C26D42F020020123C265C6
:103EF000002280F8582018461DB070BC70479368A7
:103F00005C07F0D4B2F1A04F2ED0394B9A422BD09F
:103F1000002E59D0374A4C68936823F460432343FA
:103F200090F8384043EA44339360304B9C6803F583
:103F300080739B682343304CA4682343DB4303F026
:103F4000010343B194688B6824F471611E4321F02E
:103F50000F010E4396600023CAE7284BBFE70223F8
:103F600018461DB070BC7047AEB1254A4C689368C6
:103F700023F46043234390F8384043EA443393608A
:103F80001B4B4FF0A04292689B681343DB431C4AD3
:103F900003F00103D5E71A4A936823F46043936062
:103FA0004FF0A041124B89689B68154A0B43DB43D5
:103FB00003F00103002BCED0916821F4716121F050
:103FC0000F010023916093E70A4A084993680B4C5C
:103FD00023F4604393608968A3680B4306498968AA
:103FE0000B43DB4303F00103E4E700BF0004005090
:103FF000000100500007005000060050000500506E
:10400000000300500749CA6803024FF6FF0003F49B
:10401000E0630240134343F0BF6343F40033CB60DB
:10402000704700BF00ED00E01C4BDB68C3F30223C8
:1040300000B5C3F1070EBEF1040F03F1040C28BF55
:104040004FF0040EBCF1060F1BD9033B4FF0FF3CB1
:104050000CFA03FC22EA0C024FF0FF3C0CFA0EFCB7
:1040600021EA0C019940002841EA02010CDB00F131
:104070006040090100F56140C9B280F800135DF8A5
:1040800004FB00221346E7E7054B00F00F0009018F
:104090000344C9B219765DF804FB00BF00ED00E0EF
:1040A000FCEC00E0002808DB044A4109012300F091
:1040B0001F0003FA00F042F82100704700E100E021
:1040C000002878D070B53D4B04689C425FD93C4ACB
:1040D0003C4B3D492244A3FB0232120992000223C9
:1040E000856880F82530C368C669C0E91012016987
:1040F0002B430B4341690B4381690B4333435FFA05
:1041000084FC304E2168ACF1080CA6FB0C6C066AEE
:1041100021F4FF4121F0700133430B4323602B4E08
:10412000264B2B49CCF3041C9C4298BF31464FF0E0
:10413000010E284CC4640EFA0CF35418B5F5804FE8
:10414000036584644FEA92022AD04568ECB2013DCF
:10415000032D41F82240C6F8843027D81E4B1F4952
:104160002344013C9B0004F01F040EFA04F40022D7
:10417000C0E91531C4651A60194B5C640023012243
:10418000C36380F8243080F82520184670BD154A96
:104190000C4B15492244A3FB0232120992009EE700
:1041A0000024446041F82240C6F884300023C0E96E
:1041B0001533C365E2E70120704700BF07040240E2
:1041C000F8FBFDBFCDCCCCCC00040240000802407F
:1041D00020080240800802403F820010400902404F
:1041E00000090240F8FFFDBF00000240F0B490F863
:1041F0002440012C51D0012480F8244090F825401F
:10420000012C05D0002380F82430F0BC0220704738
:10421000022480F825400024C4630468C66C256825
:1042200025F001052560D0E91475776015B1D0E956
:1042300016677760466C076C06F01F0C012606FABD
:104240000CF67E6063608368102B036B0BBFA2606B
:10425000A160E160E260BBB1236843F00E0323601C
:10426000836C1A68D20303D51A6842F480721A600C
:104270001DB12B6843F480732B60236843F0010366
:1042800000202360F0BC7047236823F00403236000
:10429000236843F00A032360E2E70220F0BC704782
:1042A00090F82520022A034609D00422C263012186
:1042B0000022012083F8251083F82420704702682B
:1042C000596C30B4846C10681D6C20F00E001060C6
:1042D000206820F4807020601068DC6C20F0010001
:1042E000106001F01F0101228A40D3E914106A60B6
:1042F000616038B10268D3E9161422F4807202605A
:104300004C6000200121002283F8251083F824202E
:1043100030BC704738B590F82530022B09D0012306
:1043200004210022C16380F8242080F8253018463B
:1043300038BD0368846C1968426C056C21F00E016D
:104340001960196821F0010119602368C16C23F418
:104350008073236002F01F0201239340D0E91442CE
:104360006B604C6032B11368D0E9161423F480738B
:1043700013604C60836B0122002480F8252080F8B4
:10438000244013B19847204638BD184638BD00BFB9
:1043900070B4436C066C056831682C6803F01F0329
:1043A00004229A400A420ED014F0040F0BD02B685E
:1043B0009B0603D42B6823F004032B60036B72600D
:1043C000CBB170BC184702229A400A4215D014F0B3
:1043D000020F12D02B68990606D42B6823F00A032B
:1043E0002B60012380F82530C36A7260002180F8B9
:1043F0002410002BE5D170BC704708229A400A4275
:10440000F9D02207F7D52A68416B22F00E022A6004
:10441000012202FA03F300247360C26380F824408F
:1044200080F825200029E6D070BC08472DE9F04F20
:104430000C6885B0002C00F083804FF0000CDFF892
:10444000D8A163464FF0010B89460BFA03F515EA34
:1044500004086FD0D9F8047007F00302511E012937
:1044600071D9032A40F0B08002FA0CF2D1430568FA
:1044700029400A4317F4403F02605BD0DAF860201D
:1044800042F00102CAF86020DAF8602002F001026E
:104490000392039A23F0030202F1804202F5803274
:1044A00003F003059168AD000F2606FA05FEB0F192
:1044B000904F21EA0E0119D0514EB04200F08F808A
:1044C000504EB04200F08F804F4EB04200F08180DD
:1044D0004E4EB04200F08D804D4EB0420CBF4FF0BA
:1044E000050E4FF0060E0EFA05F529439160494A74
:1044F000484992686FEA0805FE0254BF2A4048EA1C
:1045000002028A60CA68B902424954BF2A4048EA96
:104510000202CA6049683F4ABE0354BF294048EAC4
:10452000010151601268F9033A4954BF2A4048EA30
:1045300002020A60013334FA03F20CF1020C84D156
:1045400005B0BDE8F08F8168D9F80C604FF0030E1C
:104550000EFA0CFE21EA0E0106FA0CF631438160D8
:104560006FEA0E01D0F804E02EEA050EC7F300153D
:104570009D4045EA0E054560C56805EA010ED9F87B
:10458000085005FA0CF545EA0E05022AC56002FA44
:104590000CF27FF46CAFDD0800EB850501952E6A07
:1045A000D9F81050009603F0070E4FEA8E0E0F2632
:1045B00005FA0EF506FA0EFE009E26EA0E0E019E84
:1045C00045EA0E05356252E7032101FA0CF1C943B1
:1045D000D2E74FF0030E0EFA05F5294386E70BFAF2
:1045E00005F5294382E74FF0020E0EFA05F529433F
:1045F0007CE74FF0040E0EFA05F5294376E700BF7D
:104600000004004800080048000C00480010004862
:1046100000140048000401400010024003691942E0
:1046200014BF0120002070470AB181617047816288
:10463000704700BF002800F0D78038B590F891325D
:10464000044603F0FF02002B00F0C980032320681A
:1046500084F8913204F090F82279002A00F0AE80BC
:1046600000234FF48071012AC4E908332182E374E6
:10467000A36200F0C08040F20111022AC4E91233A3
:10468000218784F83B30236544D04FF48171032A9D
:10469000C4E91C33A4F8601084F86330A36739D0F0
:1046A00040F20311042AC4E92633A4F8881084F8E0
:1046B0008B30C4F8A0302DD04FF48271052AC4E9A4
:1046C0003033A4F8B01084F8B330C4F8C83021D027
:1046D00040F20511062AC4E93A33A4F8D81084F848
:1046E000DB30C4F8F03015D04FF48371072AC4E9E9
:1046F0004433A4F8001184F80331C4F8183109D008
:10470000C4E94E3340F20711A4F8281184F82B3184
:10471000C4F8403100230121022AC4E95833C4E916
:104720006233A4F8503184F85331C4F86831A4F8E6
:10473000781184F87B31C4F890313FD00221032AEC
:10474000C4E96C33A4F8A01184F8A331C4F8B831DB
:1047500034D00321042AC4E97633A4F8C81184F8BC
:10476000CB31C4F8E03129D00421052AC4E98033D3
:10477000A4F8F01184F8F331C4F808321ED00521F2
:10478000062AC4E98A33A4F8181284F81B32C4F844
:10479000303213D00621072AC4E99433A4F840121A
:1047A00084F84332C4F8583208D0C4E99E33072253
:1047B000A4F8682284F86B32C4F8803223460025BE
:1047C00053F8040B93E8060003F0E0FFA37A257387
:1047D0000122934284F8912208D0284638BD80F8FF
:1047E000902207F0F9FE31E701207047204600F0E3
:1047F000F9FE284638BDC4E95833A4F8503184F88E
:104800005331C4F86831D9E790F89032012B0ED0BB
:1048100010B504460123006884F8903203F0A2FF2B
:10482000206804F0D7FD002084F8900210BD02201B
:10483000704700BF2DE9F04F044683B0006804F0D4
:10484000D5FD10F400452CD1430500F17B814704D0
:104850001BD410F4005140F0F581C60400F18B80A8
:10486000050500F14083010600F11183820500F186
:104870001684C30512D52268B2F8443023F480733D
:104880001B041B0CA2F8443008E02268B2F8443044
:1048900023F480431B041B0CA2F8443003B0BDE892
:1048A000F08F2068B0F844301F04F7D5DFF898AADD
:1048B000DFF898BA10E011F0100100F0C180018813
:1048C00011F400658BB240F0E8801E0400F15881BD
:1048D000B0F844301A04E1D5B0F84450A9B215F04C
:1048E0000F05E8D02EB230F8263019041FFA83F9EC
:1048F00064D419F0800FEBD030F826309BB203EA75
:104900000A0343F4004320F8263005EB850304EB4B
:10491000C3034FEA8508DA7C012A00F09F8119F46D
:10492000807740F0C581B0F8501093F810C040F285
:10493000024206EB860610FA81F102EBCC0204EB90
:10494000C6058A5AA96AC2F3090291424FEAC6060D
:1049500040F29C80891AA962002900F098801036E4
:10496000A1195E6A16445E62EB6A1344EB6204F0BE
:10497000C7F92068ACE72268B2F8403023F004039E
:104980001B041B0CA2F84030B2F8403023F008039F
:104990001B041B0CA2F8403094F8C832012B00F025
:1049A0008C83204607F088FE2268B2F8443023F456
:1049B00080531B041B0CA2F844306FE730F826200C
:1049C00040F68F73134043F0800305EB850120F818
:1049D000263004EBC1014FEA850891F85C31002BC9
:1049E0007DD1B0F8503000F2064212FA83F391F80C
:1049F000502133F83270C7F30907002F40F0F481DB
:104A000008EB050304EBC303D3F86C213A44C3F865
:104A10006C21D3F864213A44C3F86421D3F86821A7
:104A200022B1D3F86031BB4240F2C181A84404EB0B
:104A3000C808204698F8501107F004FE206858E78F
:104A400003889BB203EA0A0343F400430380B0F8EF
:104A50005030227C10FA83F040F2024303EBC20391
:104A6000626AC35AC3F30903E362134463622046D4
:104A700007F0F2FD237B73B1A36A63B9227B206840
:104A800042F08002A0F84C20237321E7AF62614618
:104A9000204607F0E1FD20681AE7B0F8502094F8AE
:104AA000501140F2064310FA82F203EBC10304F501
:104AB0002671D35AB4F85621C3F30903C4F86C31F4
:104AC00004F0A8FC2268118840F68F730B4043F075
:104AD00080032046138007F0AFFD2068F8E691F8C8
:104AE0005331022B00F01A8291F8502130F8223015
:104AF00023F4E04323F070031B041B0C43F4004336
:104B000043F0C00320F8223091F850311AB230F847
:104B1000222012F4804FB0F8502000F0528100F2B1
:104B2000024717FA82F232F83370C7F30907002FF1
:104B30003FF466AFB1F85821D1F864113B4604F058
:104B400069FC5DE72268B2F8443023F480631B04FB
:104B50001B0CA2F84430204607F08CFD94F89032EC
:104B6000012B3FF49BAE0123206884F8903225731B
:104B7000294604F029FC84F8905203B0BDE8F08F78
:104B8000028840F68F73134043F080030380B0F82F
:104B9000502094F8501140F2064310FA82F203EBD1
:104BA000C103D35AC3F30903C4F86C3193B1D4F8E9
:104BB000641179B1B4F8562104F02CFCD4F86431B6
:104BC000D4F86C21134420462946C4F8643107F018
:104BD00039FD2068038819059AB23FF579AE02F4D1
:104BE0004052B2F5405F3FF473AEB0F85030D4F8A5
:104BF00060119BB200F206453E29EA5AC2F309024F
:104C0000EA5240F2C881CA06EA5A4FEA511608BF72
:104C100006F1FF3692B242EA86226FEA42426FEA1A
:104C2000524292B2EA52038823F4804323F0700385
:104C30001B041B0C83F4405343F4004343F08003F4
:104C4000038045E62268B2F8443023F400531B0485
:104C50001B0CA2F8443003B0BDE8F08F6A1C02EBD5
:104C60008202002144F832101A7FC2B119F04009C3
:104C70005A7C40F00181002A40F025821B7CB0F86C
:104C8000502000EBC30303F2064392B2995AC1F3DA
:104C900009019952995A89B241F400419952454407
:104CA00004EBC5052046297C07F0D6FC20680FE6FA
:104CB00019F0400206EB8606197C0192B0F85030DC
:104CC00004EBC60600F09880CA0012FA83F300F2E3
:104CD000024CD6F828E033F80C30C3F309039E45A4
:104CE0000FB240F26581AEEB030EC6F828E0BEF1CC
:104CF000000F00F05F8119F4804F0DD030F82720AD
:104D000022F4E04222F070021204120C42F44042FB
:104D100042F0800220F8272008EB050E04EBCE0EAF
:104D20009EF83420012A40F09580DEF82420D11826
:104D3000CEF82410F26A1A44F262DEF83060DEF82F
:104D400020209642C0F0B182B61ACEF8306093B2FD
:104D500008EB050604EBC606767C002E40F09B822D
:104D6000B0F850601CFA86FC3E2A3CF83760C6F367
:104D700009062CF8376040F2BB825609D2063CF88F
:104D8000372008BF06F1FF3692B242EA86226FEA68
:104D900042426FEA524292B22CF8372008EB0502E9
:104DA00004EBC202128B04F025FB206852E028219C
:104DB00001FB0541206801F5A87103F0A1FF2068FF
:104DC00097E500F2064717FA82F232F83370C7F31C
:104DD0000907002F3FF414AEB1F85A21D1F864113D
:104DE0003B4604F017FB0BE6B1F85621D1F86411ED
:104DF0003B4604F00FFB03E64FEAC10E1EFA83F3B5
:104E000000F2064CB76A33F80C30C3F309039F4233
:104E10000AB2C0F01281FF1AB762002F00F00F81B2
:104E200019F4804F0DD130F8221021F4E04121F027
:104E300070010904090C41F4404141F0800120F85F
:104E4000221008EB050E04EBCE0E9EF8341001295B
:104E500000F0E481454404EBC5052A7C30F822309B
:104E60009BB203EA0B0383F0300343F4004343F0A7
:104E7000800320F822302BE5002A40F032811B7C91
:104E8000B0F8502000EBC30303F20243FDE62268B2
:104E9000B2F8443023F080031B041B0CA2F844300A
:104EA00094F8C832002B7FD1B2F840309BB243F067
:104EB0000403A2F84030B2F840309BB2012143F025
:104EC0000803A2F8403084F8C812B2F85430C3F393
:104ED0008D0303F03C032046C4F8CC3203B0BDE898
:104EE000F04F07F0D1BC2268B2F840309BB243F0DB
:104EF0000803A2F84030B2F8443023F400631B04E6
:104F00001B0CA2F84430B2F840309BB243F00403CB
:104F10002046A2F8403007F0BFFBBFE419F48042FE
:104F2000B0F8503000F0EA8000F2024212FA83F347
:104F300091F850C1D1F8682133F83C30C3F309032C
:104F40009A421F46C0F05481D21AC1F86821002A43
:104F500000F0518119F0400F0FD00FFA8CFC30F89F
:104F60002C2022F4E04222F070021204120C42F4CF
:104F7000004242F0C00220F82C200BB91F463FE54A
:104F800008EB050104EBC101B1F85821D1F8641117
:104F900004F040FA34E5002940F0E680EA5A92B283
:104FA00042F40042EA523EE6204607F075FB75E403
:104FB0000023B36208EB050304EBC3035B7C002B07
:104FC00040F0DD80B0F850301CFA83FC02F206425B
:104FD0003CF83730C3F309032CF837303CF837304E
:104FE0009BB243F400432CF83730B0F85030024401
:104FF0009BB2D05AC0F30900D052D05A80B240F4CC
:105000000040D052204607F027FB19F4804F44D0CF
:1050100008EB050304EBC30320681A7C30F8223048
:1050200023F4E04323F070031B041B0C43F44043C0
:1050300043F0800320F822300CE7019BB36208EBB9
:10504000050304EBC3035B7C002B40F0AA80B0F89F
:1050500050300EF202469BB20644F75AC7F30907D6
:10506000F752F75ABFB247F40047F752B0F8503042
:105070001CFA83FC3CF83230C3F309032CF83230BD
:105080003CF832309BB243F400432CF832302046D7
:1050900007F0E2FA19F4804FBAD02068DAE6226805
:1050A000B2F8443023F400731B041B0C2046A2F812
:1050B000443007F0DBFAFFF7F1BB84F8C812204652
:1050C00007F0E2FB6DE4012A7FF4E9AD1B7CB0F848
:1050D000502000EBC30303F2064392B223F8029080
:1050E000DDE5012A7FF4DBAD1B7CB0F8502000EB3E
:1050F000C30303F2024392B29952D0E500F206478D
:1051000017FA83F391F850C1D1F868E133F83C30D5
:10511000C3F309039E451F4655D3AEEB0302C1F806
:105120006821002A51D019F0400F0FD10FFA8CFCE2
:1051300030F82C2022F4E04222F070021204120C0B
:1051400042F4004242F0C00220F82C20002B3FF431
:1051500015AF08EB050104EBC101B1F85A21D1F8F4
:10516000641104F057F94BE4EA5A4E08CF0748BFE0
:10517000013692B242EA862292B2EA5253E5012BFC
:105180007FF440AFB0F850301CFA83FC00262CF8B6
:105190003760B0F8503002F2064202449BB2D65259
:1051A00030E7012B7FF473AFB0F850300EF20247B6
:1051B0009BB207440026FE52B0F850301CFA83FC24
:1051C0002CF8326063E7C1F868210FFA8CF130F8EF
:1051D000212022F4804222F070021204120C82F488
:1051E000005242F4004242F0800220F821209AE767
:1051F0000022C1F868210FFA8CF130F8212022F446
:10520000804222F070021204120C82F4005242F426
:10521000004242F0800220F821209BE6DEF82410B4
:105220001944CEF82410F76A1F44F762DEF8307094
:10523000DEF82060B74246D3BF1BCEF83070B3B261
:1052400008EB050704EBC7077F7C9FBBB0F85070E5
:105250001CFA87FC3E2E3CF83270C7F309072CF885
:1052600032704ED97709F6063CF8326008BF07F174
:10527000FF37B6B246EA87266FEA46466FEA5646D9
:10528000B6B22CF8326008EB050204EBC202528B76
:1052900004F0B0F801E7012E7FF480ADB0F85020A3
:1052A0001CFA82FC2CF8373078E58EB98EF8346021
:1052B0001A464DE5012FE6D1B0F850601CFA86FC85
:1052C0002CF83230DFE75FB98EF834701E46B7E74E
:1052D00000238EF83430CEF830303246B3B237E5A2
:1052E0000023CEF830308EF834303E46BBB2A7E70C
:1052F00082B93CF8372092B242F400422CF83720B1
:105300004CE5A6B93CF83260B6B246F400462CF83B
:105310003260B8E75608D2073CF8372048BF01365C
:1053200092B242EA862292B22CF8372036E577080C
:10533000F6073CF8326048BF0137B6B246EA872626
:10534000B6B22CF832609EE70F8FFFFFBF8FFFFFD2
:1053500090F89022012A0CD010B504460122006872
:1053600084F89022217304F02FF8002084F8900232
:1053700010BD0220704700BF01F0070C11F0800F34
:105380004FF0280110B501FB0C0104461FD10CEBB6
:105390008C0E00EBCE0E002001F5A8718EF85101A5
:1053A000022BCB7004BF00230B7181F800C00A618F
:1053B00094F89032012B14D0012384F890322068A5
:1053C00003F0F8F9002384F89032184610BD0CEB76
:1053D0008C0004EBC0004FF0010E103180F811E09A
:1053E000DEE7022010BD00BF01F0070303EB8302DC
:1053F00011F0800F4FF0280110B500EBC2020446F7
:1054000001FB030113D101F5A871002082F85101BD
:105410000B7094F89032012B11D00123206884F88E
:10542000903203F08DFB002084F8900210BD103103
:10543000012050740B7094F89032012BEDD10220B2
:1054400010BD00BF01F0070101EB810C10B500EBAE
:10545000CC0C0024CCF86421282202FB01028CF839
:10546000501100688CF85141CCE95A3402F5A8710A
:1054700003F046FC204610BD01F0070101EB81015D
:1054800000EBC101D1F86C01704700BF10B501F00D
:10549000070E0EEB8E0100EBC10C6146CCF82830F4
:1054A000CCF83030002401230068CCF824201031DF
:1054B0008CF83430CCF82C408CF811308CF810E09B
:1054C00003F01EFC204610BD027901F007039A424A
:1054D00032D30A0610B504461BD401EB8102282002
:1054E00000FB014104EBC20201F5A871002082F823
:1054F000510101228A700B7094F89032934219D0B6
:10550000206884F8902203F0E7FE002084F89002DF
:1055100010BD03EB8302282101FB030100EBC20253
:1055200010310120507401228A700B7094F890326F
:105530009342E5D1022010BD0120704738B50279B1
:1055400001F00F039A422FD301F0070303EB83020C
:1055500011F0800F4FF02801044600EBC20201FB5E
:10556000030115D101F5A8710020002582F8510131
:105570008D700B7094F89032012B13D001232068AA
:1055800084F8903203F0D0FE84F89052284638BD5B
:1055900010310120002550748D700B7094F89032FA
:1055A000012BEBD1022038BD012038BD11F0800F56
:1055B0000BD001F0070101EB810100EBC1001030BD
:1055C0005AB9C38002730020704701EB810100EBE0
:1055D000C10000F5A870002AF3D001228360027395
:1055E000002070470268002110B480F8C812B2F899
:1055F000543001249BB22343C0F8D042A2F8543067
:10560000B2F854305DF8044B9BB243F002030846F5
:10561000A2F85430704700BF10B43B4A70B9136809
:1056200003F4C063B3F5806FD2F8803023D023F445
:1056300080735DF8044BC2F880307047B0F5007F8E
:1056400009D013685DF8044B23F4C06343F480630E
:10565000002013607047136803F4C063B3F5806FD4
:10566000D2F880302FD043F4807300205DF8044BD3
:10567000C2F88030704723F48073C2F8803011681C
:10568000224C234821F4C06141F400711160236869
:10569000322101FB03F35169A0FB03039B0C480576
:1056A00003F1010306D500E023B15169490503F177
:1056B000FF33F9D4144B5B695C0554BF0020032011
:1056C0005DF8044B704743F48073C2F88030116872
:1056D0000E4C0F4821F4C06141F400711160236841
:1056E000322101FB03F35169A0FB03039B0C480526
:1056F00003F10103DED501E0002BDBD05169490540
:1057000003F1FF33D6D5F7E7007000408800002092
:1057100083DE1B43024A936843F4804393607047DF
:1057200000700040002800F000822DE9F04103687D
:10573000D90782B004462DD5AF498A68C96802F0FE
:105740000C020C2A00F00681082A00F00881636828
:10575000B3F5803F00F07781B3F5A02F00F0D8813A
:10576000A54D2A6822F480322A602A6822F4802219
:105770002A60002B40F06C81FCF7D0FF064605E064
:10578000FCF7CCFF801B642800F27F812B689F030D
:10579000F6D423689E0728D5974A9368D26803F009
:1057A0000C030C2B00F03081042B00F03281E368F5
:1057B000914D002B00F05A812B6843F480732B60CD
:1057C000FCF7ACFF064605E0FCF7A8FF801B0228AB
:1057D00000F25B812B685805F6D56B68226923F0CF
:1057E000FE4343EA02636B6023681A0719D56369B5
:1057F000814D002B00F09980D5F8943043F00103DF
:10580000C5F89430FCF78AFF064605E0FCF786FFF2
:10581000801B022800F23981D5F894309B07F5D51A
:1058200023685E0741D5744B9A6DD50000F1318134
:105830009A6D42F080529A659B6D03F080530193FC
:10584000019B01256D4E3368D80540F15081A36856
:10585000012B00F02081052B00F06981664ED6F8FF
:10586000902022F00102C6F89020D6F8902022F075
:105870000402C6F89020002B40F01481FCF74EFF84
:1058800041F28838074605E0FCF748FFC01B404559
:1058900000F2FB80D6F890309B07F5D425B1564A2C
:1058A000936D23F08053936523689D0618D5A369F3
:1058B000514D002B00F00781D5F8983043F00103DB
:1058C000C5F89830FCF72AFF064605E0FCF726FFEE
:1058D000801B022800F2D980D5F898309807F5D5BA
:1058E000E069002800F08380434DAB6803F00C03AF
:1058F0000C2B00F02A812B68022823F080732B6088
:105900003AD0FCF70BFF044605E0FCF707FF001B4D
:10591000022800F2BA802B6813F00073F5D1E96811
:10592000374A0A401846EA6062E0D5F8943023F01E
:105930000103C5F89430FCF7F1FE064605E0FCF7DC
:10594000EDFE801B022800F2A080D5F894309F075E
:10595000F5D465E701F0030103297FF4F8AE264A88
:10596000126892037FF516AF6268002A7FF412AFC7
:10597000012002B0BDE8F081FCF7D0FE064604E04D
:10598000FCF7CCFE801B02287FD82B689A01F7D445
:10599000E9681C4B226A606A174E0B401343D4E936
:1059A0000A1243EA012343EAC263D4E90C12013824
:1059B000490843EA00130139520843EA4153013AC6
:1059C00043EA4263EB602B6843F080732B60EB6823
:1059D00043F08073EB60FCF7A1FE044604E0FCF7A3
:1059E0009DFE001B022850D833689B01F7D500208C
:1059F00002B0BDE8F08100BF00100240007000401E
:105A0000FCFFEEFE0C809F0102F00302022A7FF4ED
:105A1000CEAE684B1B685D0502D5E368002BA7D0AE
:105A2000644A20695368644923F0FE4343EA0063F3
:105A300053600868FCF73EFB002899D123681A07D9
:105A40007FF5EFAED3E65B4A136843F4803313600F
:105A5000FCF764FE574E054604E0FCF75FFE401B72
:105A6000642812D833689B03F7D592E62B6823F499
:105A700080732B60FCF752FE06462B685905DDD576
:105A8000FCF74CFE801B0228F7D9032002B0BDE8CA
:105A9000F0810025D6E6474AD2F8903043F0010362
:105AA000C2F89030FCF73AFE424F064641F2883881
:105AB00004E0FCF733FE801B4045E6D8D7F8903071
:105AC0009A07F6D5EAE6D5F8983023F00103C5F831
:105AD0009830FCF723FE064604E0FCF71FFE801B0F
:105AE0000228D2D8D5F898309907F6D4F8E633686A
:105AF00043F480733360FCF711FE07463368D90521
