:020000040800F2
:1000000000000220AD250008B5200008BD20000832
:10001000BF200008C1200008C32000080000000025
:10002000000000000000000000000000D1A800084F
:10003000C52000080000000071A900081DA60008E6
:10004000FD250008FD250008FD250008FD25000808
:10005000FD250008FD250008FD250008FD250008F8
:10006000FD250008FD250008FD250008C920000821
:10007000D9200008FD250008FD250008FD25000801
:10008000FD250008FD250008E9200008FD250008E1
:1000900001210008FD250008FD250008FD250008B8
:1000A000FD250008FD250008FD250008FD250008A8
:1000B000FD250008FD250008FD250008FD25000898
:1000C000FD250008FD250008FD250008FD25000888
:1000D000FD250008FD250008FD2500081121000868
:1000E000FD250008FD250008FD250008FD25000868
:1000F000FD250008FD250008FD250008FD25000858
:10010000FD250008FD250008FD250008FD25000847
:10011000FD250008FD250008FD250008FD25000837
:10012000FD250008FD250008FD250008FD25000827
:10013000FD250008FD250008FD250008FD25000817
:10014000FD250008FD250008FD250008FD25000807
:10015000FD250008FD250008FD250008FD250008F7
:10016000FD250008FD250008FD250008FD250008E7
:10017000FD250008FD25000821210008FD250008B7
:10018000FD250008FD250008FD250008FD250008C7
:10019000FD25000800000000FD250008FD250008E1
:1001A000FD250008FD250008FD250008FD250008A7
:1001B000FD250008FD250008FD250008FD25000897
:1001C000FD250008FD250008FD250008FD25000887
:0801D000FD250008FD250008D3
:1002000010B5054C237833B9044B13B10448AFF350
:1002100000800123237010BDE80B002000000000C7
:10022000283F010808B5034B1BB103490348AFF34E
:10023000008008BD00000000EC0B0020283F0108F2
:1002400081F0004102E000BF83F0004330B54FEA87
:1002500041044FEA430594EA050F08BF90EA020FF4
:100260001FBF54EA000C55EA020C7FEA645C7FEA87
:10027000655C00F0E2804FEA5454D4EB5555B8BFAA
:100280006D420CDD2C4480EA020281EA030382EA1B
:10029000000083EA010180EA020281EA0303362DAD
:1002A00088BF30BD11F0004F4FEA01314FF4801C80
:1002B0004CEA113102D0404261EB410113F0004F92
:1002C0004FEA03334CEA133302D0524263EB430349
:1002D00094EA050F00F0A780A4F10104D5F1200EE7
:1002E0000DDB02FA0EFC22FA05F2801841F1000142
:1002F00003FA0EF2801843FA05F359410EE0A5F116
:1003000020050EF1200E012A03FA0EFC28BF4CF046
:10031000020C43FA05F3C01851EBE37101F00045FC
:1003200007D54FF0000EDCF1000C7EEB00006EEB09
:100330000101B1F5801F1BD3B1F5001F0CD3490893
:100340005FEA30004FEA3C0C04F101044FEA4452EA
:1003500012F5800F80F09A80BCF1004F08BF5FEA71
:10036000500C50F1000041EB045141EA050130BD51
:100370005FEA4C0C404141EB0101013C28BFB1F563
:10038000801FE9D291F0000F04BF01460020B1FAAE
:1003900081F308BF2033A3F10B03B3F120020CDA81
:1003A0000C3208DD02F1140CC2F10C0201FA0CF05F
:1003B00021FA02F10CE002F11402D8BFC2F1200CC4
:1003C00001FA02F120FA0CFCDCBF41EA0C0190407A
:1003D000E41AA2BF01EB0451294330BD6FEA0404C3
:1003E0001F3C1CDA0C340EDC04F11404C4F12002AE
:1003F00020FA04F001FA02F340EA030021FA04F3C0
:1004000045EA030130BDC4F10C04C4F1200220FA16
:1004100002F001FA04F340EA0300294630BD21FA54
:1004200004F0294630BD94F0000F83F4801306BF1A
:1004300081F480110134013D4EE77FEA645C18BF0E
:100440007FEA655C29D094EA050F08BF90EA020FA5
:1004500005D054EA000C04BF1946104630BD91EA9D
:10046000030F1EBF0021002030BD5FEA545C05D1A0
:100470004000494128BF41F0004130BD14F58004DF
:100480003CBF01F5801130BD01F0004545F0FE4153
:1004900041F470014FF0000030BD7FEA645C1ABF88
:1004A000194610467FEA655C1CBF0B46024650EABF
:1004B000013406BF52EA033591EA030F41F40021EB
:1004C00030BD00BF90F0000F04BF0021704730B571
:1004D0004FF4806404F132044FF000054FF0000146
:1004E00050E700BF90F0000F04BF0021704730B507
:1004F0004FF4806404F1320410F0004548BF4042DC
:100500004FF000013EE700BF42004FEAE2014FEA30
:1005100031014FEA02701FBF12F07F4393F07F4F0B
:1005200081F06051704732F07F4208BF704793F00E
:100530007F4F04BF41F40021704730B54FF4607421
:1005400001F0004521F000411CE700BF50EA010224
:1005500008BF704730B54FF000050AE050EA0102CD
:1005600008BF704730B511F0004502D5404261EB3D
:1005700041014FF4806404F132045FEA915C3FF47E
:10058000D8AE4FF003025FEADC0C18BF03325FEA1B
:10059000DC0C18BF033202EBDC02C2F1200300FACC
:1005A00003FC20FA02F001FA03FE40EA0E0021FAF1
:1005B00002F11444BDE600BF70B54FF0FF0C4CF4DF
:1005C000E06C1CEA11541DBF1CEA135594EA0C0F91
:1005D00095EA0C0F00F0DEF82C4481EA030621EACC
:1005E0004C5123EA4C5350EA013518BF52EA033507
:1005F00041F4801143F4801338D0A0FB02CE4FF0B9
:100600000005E1FB02E506F00042E0FB03E54FF0E8
:100610000006E1FB03569CF0000F18BF4EF0010EE0
:10062000A4F1FF04B6F5007F64F5407404D25FEADC
:100630004E0E6D4146EB060642EAC62141EA55518F
:100640004FEAC52040EA5E504FEACE2EB4F1FD0CD1
:1006500088BFBCF5E06F1ED8BEF1004F08BF5FEA4F
:10066000500E50F1000041EB045170BD06F0004601
:1006700046EA010140EA020081EA0301B4EB5C04AE
:10068000C2BFD4EB0C0541EA045170BD41F48011A6
:100690004FF0000E013C00F3AB8014F1360FDEBFCB
:1006A000002001F0004170BDC4F10004203C35DAA7
:1006B0000C341BDC04F11404C4F1200500FA05F32A
:1006C00020FA04F001FA05F240EA020001F00042CB
:1006D00021F0004110EBD37021FA04F642EB060141
:1006E0005EEA430E08BF20EAD37070BDC4F10C046B
:1006F000C4F1200500FA04F320FA05F001FA04F22F
:1007000040EA020001F0004110EBD37041F100011A
:100710005EEA430E08BF20EAD37070BDC4F1200525
:1007200000FA05F24EEA020E20FA04F301FA05F28D
:1007300043EA020321FA04F001F0004121FA04F235
:1007400020EA020000EBD3705EEA430E08BF20EA05
:10075000D37070BD94F0000F0FD101F0004640003F
:1007600041EB010111F4801F08BF013CF7D041EAC1
:10077000060195F0000F18BF704703F000465200C5
:1007800043EB030313F4801F08BF013DF7D043EA96
:100790000603704794EA0C0F0CEA135518BF95EA4C
:1007A0000C0F0CD050EA410618BF52EA4306D1D1D3
:1007B00081EA030101F000414FF0000070BD50EAF2
:1007C000410606BF1046194652EA430619D094EA7C
:1007D0000C0F02D150EA013613D195EA0C0F05D166
:1007E00052EA03361CBF104619460AD181EA0301BA
:1007F00001F0004141F0FE4141F470014FF0000072
:1008000070BD41F0FE4141F4780170BD70B54FF00C
:10081000FF0C4CF4E06C1CEA11541DBF1CEA13558C
:1008200094EA0C0F95EA0C0F00F0A7F8A4EB05046E
:1008300081EA030E52EA03354FEA013100F0888065
:100840004FEA03334FF0805545EA131343EA12632E
:100850004FEA022245EA111545EA10654FEA0026E3
:100860000EF000419D4208BF964244F1FD0404F59C
:10087000407402D25B084FEA3202B61A65EB0305F8
:100880005B084FEA32024FF480104FF4002CB6EBB5
:10089000020E75EB030E22BFB61A754640EA0C0035
:1008A0005B084FEA3202B6EB020E75EB030E22BF75
:1008B000B61A754640EA5C005B084FEA3202B6EBB6
:1008C000020E75EB030E22BFB61A754640EA9C0075
:1008D0005B084FEA3202B6EB020E75EB030E22BF45
:1008E000B61A754640EADC0055EA060E18D04FEA03
:1008F000051545EA16754FEA06164FEAC30343EAA3
:1009000052734FEAC2025FEA1C1CC0D111F4801F6F
:100910000BD141EA00014FF000004FF0004CB6E768
:1009200011F4801F04BF01430020B4F1FD0C88BF07
:10093000BCF5E06F3FF6AFAEB5EB030C04BFB6EB12
:10094000020C5FEA500C50F1000041EB045170BD05
:100950000EF0004E4EEA113114EB5C04C2BFD4EB32
:100960000C0541EA045170BD41F480114FF0000EB6
:10097000013C90E645EA060E8DE60CEA135594EA32
:100980000C0F08BF95EA0C0F3FF43BAF94EA0C0F35
:100990000AD150EA01347FF434AF95EA0C0F7FF4AA
:1009A00025AF104619462CE795EA0C0F06D152EAFE
:1009B00003353FF4FDAE1046194622E750EA4106E2
:1009C00018BF52EA43067FF4C5AE50EA41047FF4F3
:1009D0000DAF52EA43057FF4EBAE12E74FF0FF3C58
:1009E00006E000BF4FF0010C02E000BF4FF0010C29
:1009F0004DF804CD4FEA410C7FEA6C5C4FEA430CA2
:100A000018BF7FEA6C5C1BD001B050EA410C0CBFF0
:100A100052EA430C91EA030F02BF90EA020F002052
:100A2000704710F1000F91EA030F58BF994208BFB9
:100A300090422CBFD8176FEAE37040F00100704776
:100A40004FEA410C7FEA6C5C02D150EA013C07D1CD
:100A50004FEA430C7FEA6C5CD6D152EA033CD3D018
:100A60005DF8040B704700BF8446104662468C4612
:100A70001946634600E000BF01B5FFF7B7FF002845
:100A800048BF10F1000F01BD4DF808EDFFF7F4FF6E
:100A90000CBF012000205DF808FB00BF4DF808EDF9
:100AA000FFF7EAFF34BF012000205DF808FB00BF1C
:100AB0004DF808EDFFF7E0FF94BF012000205DF83E
:100AC00008FB00BF4DF808EDFFF7CEFF94BF0120F3
:100AD00000205DF808FB00BF4DF808EDFFF7C4FFEC
:100AE00034BF012000205DF808FB00BF4FEA41023F
:100AF000B2F1E04324BFB3F5001CDCF1FE5C0DD97C
:100B000001F0004C4FEAC0024CEA5070B2F1004FC5
:100B100040EB830008BF20F00100704711F0804FC8
:100B200021D113F13872BCBF01F00040704741F48D
:100B300080114FEA5252C2F11802C2F1200C10FA91
:100B40000CF320FA02F018BF40F001004FEAC12375
:100B50004FEAD32303FA0CFC40EA0C0023FA02F319
:100B60004FEA4303CCE77FEA625307D150EA0133EF
:100B70001EBF4FF0FE4040F44000704701F00040BF
:100B800040F0FE4040F40000704700BF53B94AB93E
:100B9000002908BF00281CBF4FF0FF314FF0FF3085
:100BA00000F074B9ADF1080C6DE904CE00F006F860
:100BB000DDF804E0DDE9022304B070472DE9F047D9
:100BC000089D04468E46002B4DD18A42944669D931
:100BD000B2FA82F252B101FA02F3C2F1200120FA14
:100BE00001F10CFA02FC41EA030E94404FEA1C4862
:100BF000210CBEFBF8F61FFA8CF708FB16E341EA5E
:100C0000034306FB07F199420AD91CEB030306F1E3
:100C1000FF3080F01F81994240F21C81023E634404
:100C20005B1AA4B2B3FBF8F008FB103344EA0344A8
:100C300000FB07F7A7420AD91CEB040400F1FF33BD
:100C400080F00A81A74240F207816444023840EAFA
:100C50000640E41B00261DB1D4400023C5E9004333
:100C60003146BDE8F0878B4209D9002D00F0EF80B6
:100C70000026C5E9000130463146BDE8F087B3FAE9
:100C800083F6002E4AD18B4202D3824200F2F980D1
:100C9000841A61EB030301209E46002DE0D0C5E9D4
:100CA000004EDDE702B9FFDEB2FA82F2002A40F020
:100CB0009280A1EB0C014FEA1C471FFA8CFE012623
:100CC000200CB1FBF7F307FB131140EA01410EFBC7
:100CD00003F0884208D91CEB010103F1FF3802D26E
:100CE000884200F2CB804346091AA4B2B1FBF7F068
:100CF00007FB101144EA01440EFB00FEA64508D98B
:100D00001CEB040400F1FF3102D2A64500F2BB80C7
:100D10000846A4EB0E0440EA03409CE7C6F1200716
:100D2000B34022FA07FC4CEA030C20FA07F401FA5C
:100D300006F31C43F9404FEA1C4900FA06F3B1FBE5
:100D4000F9F8200C1FFA8CFE09FB181140EA01414A
:100D500008FB0EF0884202FA06F20BD91CEB0101E7
:100D600008F1FF3A80F08880884240F28580A8F13F
:100D700002086144091AA4B2B1FBF9F009FB101191
:100D800044EA014100FB0EFE8E4508D91CEB01012F
:100D900000F1FF346CD28E456AD90238614440EAD2
:100DA0000840A0FB0294A1EB0E01A142C846A64652
:100DB00056D353D05DB1B3EB080261EB0E0101FADB
:100DC00007F722FA06F3F1401F43C5E90071002638
:100DD0003146BDE8F087C2F12003D8400CFA02FC8E
:100DE00021FA03F3914001434FEA1C471FFA8CFE9E
:100DF000B3FBF7F007FB10360B0C43EA064300FB8E
:100E00000EF69E4204FA02F408D91CEB030300F12B
:100E1000FF382FD29E422DD9023863449B1B89B2E2
:100E2000B3FBF7F607FB163341EA034106FB0EF36B
:100E30008B4208D91CEB010106F1FF3816D28B4218
:100E400014D9023E6144C91A46EA004638E72E46E4
:100E5000284605E70646E3E61846F8E64B45A9D2DC
:100E6000B9EB020864EB0C0E0138A3E74646EAE74B
:100E7000204694E74046D1E7D0467BE7023B6144F9
:100E800032E7304609E76444023842E7704700BF62
:100E90004A0011D212F5001211D20DD56FF47873F9
:100EA000B3EB62520ED44FEAC12343F0004343EA4E
:100EB000505323FA02F070474FF00000704750EA99
:100EC000013002D14FF0FF3070474FF00000704703
:100ED000844641EA000313F003036DD1403A41D345
:100EE00051F8043B40F8043B51F8043B40F8043B04
:100EF00051F8043B40F8043B51F8043B40F8043BF4
:100F000051F8043B40F8043B51F8043B40F8043BE3
:100F100051F8043B40F8043B51F8043B40F8043BD3
:100F200051F8043B40F8043B51F8043B40F8043BC3
:100F300051F8043B40F8043B51F8043B40F8043BB3
:100F400051F8043B40F8043B51F8043B40F8043BA3
:100F500051F8043B40F8043B51F8043B40F8043B93
:100F6000403ABDD2303211D351F8043B40F8043B33
:100F700051F8043B40F8043B51F8043B40F8043B73
:100F800051F8043B40F8043B103AEDD20C3205D343
:100F900051F8043B40F8043B043AF9D2043208D03B
:100FA000D2071CBF11F8013B00F8013B01D30B88AD
:100FB00003806046704700BF082A13D38B078DD08B
:100FC00010F003038AD0C3F10403D21ADB071CBF5D
:100FD00011F8013B00F8013B80D331F8023B20F8C7
:100FE000023B7BE7043AD9D3013A11F8013B00F800
:100FF000013BF9D20B7803704B7843708B78837088
:101000006046704700000000000000000000000083
:1010100000000000000000000000000000000000D0
:1010200000000000000000000000000000000000C0
:1010300000000000000000000000000000000000B0
:1010400090F800F06DE9024520F007016FF0000C08
:1010500010F0070491F820F040F049804FF00004B0
:101060006FF00700D1E9002391F840F000F108008B
:1010700082FA4CF2A4FA8CF283FA4CF3A2FA8CF3C3
:101080004BBBD1E9022382FA4CF200F10800A4FA2A
:101090008CF283FA4CF3A2FA8CF3E3B9D1E904237E
:1010A00082FA4CF200F10800A4FA8CF283FA4CF3B5
:1010B000A2FA8CF37BB9D1E9062301F1200182FA6F
:1010C0004CF200F10800A4FA8CF283FA4CF3A2FA75
:1010D0008CF3002BC6D0002A04BF04301A4612BA83
:1010E000B2FA82F2FDE8024500EBD2007047D1E986
:1010F000002304F00305C4F100004FEAC50514F015
:10110000040F91F840F00CFA05F562EA05021CBFE5
:1011100063EA050362464FF00004A9E700000000FF
:1011200001F0FF01102A2BDB10F0070F08D010F898
:10113000013B013A8B422DD010F0070F42B3F6D19C
:10114000F0B441EA012141EA014122F007047FF0B5
:1011500000070023F0E80256083C85EA010586EA0C
:10116000010685FA47F5A3FA87F586FA47F6A5FA48
:1011700087F68EB9EED1F0BC01F0FF0102F0070254
:1011800032B110F8013B013A83EA010313B1F8D1FF
:101190000020704701387047002D06BF35460338E0
:1011A000073815F0010F07D1013015F4807F02BF19
:1011B000013015F4C03F0130F0BC0138704700BF6A
:1011C00038B50022002304460D46FFF767FC28B916
:1011D00020462946BDE8384000F00AB8204605F10F
:1011E000004100F005F8404261EB410138BD00BF0D
:1011F000D0B50C4B002206460F46FFF7DDF9FFF78E
:1012000047FE0446FFF75EF9074B0022FFF7D4F9CB
:1012100002460B4630463946FFF716F8FFF738FE10
:101220002146D0BD0000F03D0000F04110B592B065
:1012300000240F94109411943C22214668460DF02E
:10124000D7FA25484FF0A04303604FF400234360D2
:101250008460C4600461446104238361047744773B
:101260000123036280F8244080F83840C46380F88A
:10127000404001F0F9F930BB00230F930FA9164845
:1012800002F048FE10BB154B009309230193002385
:1012900002937F2203920422049205930122089272
:1012A0008DF824308DF825308DF8263084220A926E
:1012B00080220B928DF830306946074802F0F2FA2E
:1012C00038B912B010BD00F087FDD5E700F084FDFD
:1012D000D9E700F081FDF4E7080C00200800900C2D
:1012E00000B599B02022002110A80DF081FA3C220F
:1012F000002101A80DF07CFA3A483B4B03604FF403
:101300000023436000238360C360036101224261C4
:1013100004218161037743770321016280F824204F
:101320008262C362036380F83830C36380F8403060
:1013300001F09AF9002845D12C4B10930623119304
:10134000012312937F2313930423149300231593F3
:1013500010A9244801F0F4FC002836D1244B109346
:101360000C23119310A91F4801F0EAFC00282FD18B
:10137000204B10931223119310A91A4801F0E0FC9E
:1013800048BB1D4B019309230293002303937F2243
:101390000492042205920693012209928DF82830C6
:1013A0008DF829308DF82A3084220B9280220C92FD
:1013B0008DF8343001A90B4802F074FA70B919B0F5
:1013C0005DF804FB00F008FDB6E700F005FDC5E799
:1013D00000F002FDCCE700F0FFFCD2E700F0FCFCDF
:1013E000EDE700BF740C0020000100500008302E13
:1013F000400020198000501D0400600830B5A1B0E5
:10140000044600211B911C911D911E911F91542295
:1014100006A80DF0EDF92368B3F1A04F04D0474AB8
:1014200093423DD021B030BD4FF4004306934FF0BE
:101430000053179306A804F053FE18BB404A1368E4
:1014400001331360012B20D03E4BDA6C42F00102D5
:10145000DA64DB6C03F001030293029B04231B9309
:1014600003231C9300241D941BA94FF0904003F00C
:101470007BF822460521122002F048FE122002F0DD
:101480007DFECFE700F0A8FCD8E72E4BDA6C42F4E3
:101490000052DA64DB6C03F400530193019BD3E741
:1014A0004FF4004306934FF00053179306A804F03F
:1014B00017FE002834D1224A136801331360012B30
:1014C00031D0204BDA6C42F00402DA64DA6C02F0BC
:1014D00004020492049ADA6C42F00102DA64DB6CD2
:1014E00003F001030593059B23231B9303251C9500
:1014F00000241D941BA9144803F036F802231B9303
:101500001C951D941BA94FF0904003F02DF8224626
:101510000521122002F0FAFD122002F02FFE81E7D1
:1015200000F05AFCC7E7074BDA6C42F40052DA6469
:10153000DB6C03F400530393039BC2E700010050EC
:10154000040C0020001002400008004810B5324B87
:1015500098420CD0314B984220D0314B98422ED03B
:10156000304B984241D030480BF0B5FD10BD2F4BA9
:10157000D3ED147AB6EE007A77EE877AC3ED147A5B
:1015800093ED036ADFED2A6A86EE267AF4EEC77AD7
:10159000F1EE10FAE7DD83ED147AE4E7234BD3EDA7
:1015A000147AB6EE007A77EEC77AC3ED147AF5EEC8
:1015B000C07AF1EE10FAD6D500221A65D3E71B4B9C
:1015C00093F8FC32032BCED0184C052120460CF0AA
:1015D000C7F8DFED180AB6EE000A20460CF0A6F9AF
:1015E000042120460CF0BCF8BDE70329BBD10F4B0A
:1015F00093F8FC32032B09D003230C4A82F8FC3207
:10160000032B05D009480CF08BF8ACE70423F4E772
:1016100010460CF065F8A6E72871002054710020F0
:1016200080710020AC7100202472002034720020F0
:10163000D7B3DD3F0000000010B52DED028B08E0B0
:10164000134600221A6018480BF045FD012009F0EE
:101650007EF8164C214616480BF0E4FA012000F003
:10166000EFFF94ED007ADFED137A87EE278ADFED46
:10167000127A28EE278AF1EE488AF0EE480AB0EE98
:10168000680A04F18C000CF089FFF0EE480AB0EE15
:10169000680A04F1C4000CF081FF084A13680133A2
:1016A0001360322BCCDCD1E71C720020407200208A
:1016B000F8710020D7B3DD3F6666663FEC0C002072
:1016C00008B50BF0BBFC052000F0BAFF012009F0C3
:1016D0003EF8F6E710B504460846FFF7B1FC204493
:1016E0000DF058F851EC100BFFF700FA00EE100A5D
:1016F00010BD000010B50BF00BFA174C2246032169
:1017000016480BF04EFC2246032115480BF049FC0D
:101710002246032113480BF044FC224603211248C1
:101720000BF03FFC114B1B78002BFBD04FF4806279
:101730000F49104807F0FCF80F4A00210F4808F045
:10174000A7FF0F4B18600F4A00210F4808F0A0FFB9
:101750000E4B186010BD00BF4D1500082871002009
:101760005471002080710020AC710020F8710020BD
:10177000F00C002014130020F83F0108391600086F
:10178000E00C00201C400108C1160008E40C0020F9
:1017900038B504460368B3F1A04F04D02368B3F111
:1017A000A04F2DD038BD644B1B78002BF6D10921FA
:1017B000624802F057F8624D6B6903446B6109217E
:1017C000604802F04FF8AB691844A8615E4A13689C
:1017D000013B1360002BE1DC2A466B695B4981FB0E
:1017E00003C5DB17C3EBE503536181FB0031C01771
:1017F000C0EBE100906101234F490B701370CDE7FE
:101800004D4B1B78002BCDD0514D0122082128468D
:1018100002F09BFF4F4C20460CF066FE236A4E49B7
:101820000B60636A4B60D4ED797AF8EEE77AC1ED2C
:10183000027A206BC860E3680B61D4F8F4314B6125
:10184000D4F8F8218A61D4F8B831CB61D4F8BC312E
:101850000B62D4F8C0314B62D4F8D0308B62D4F82C
:10186000D430CB62D4F80C310B63236C4B63D4F8C7
:1018700098308B63D4F89C30CB63D4F808310B6478
:10188000E36B4B64D4F814318B64D4F81831CB6417
:10189000D4F84C310B65D4F8FCC1C1F854C0D4F86D
:1018A00068C1C1F858C0D4F86CC1C1F85CC0D4F8A4
:1018B000A4C1C1F860C0D4F8ECC1C1F864C0D4F8C8
:1018C00050C0C1F868C0D4F84CC0C1F86CC0D4EDA9
:1018D000747AF8EEE77AC1ED1C7AD4F854C2C1F8F4
:1018E00074C0D4F82CC0C1F878C0C867D4F87C02A2
:1018F000C1F88000D4F88002C1F88400C1F88820C3
:10190000D4F85C22C1F88C20D4F89422C1F890203D
:10191000D4F89822C1F89420C1F89830D4F86432F1
:10192000C1F89C30A4220D4806F0D8F80022082106
:10193000284602F00AFF35E7E80C0020080C0020DA
:10194000F8710020740C00200000002067666666B5
:101950000008004834720020040000201413002006
:1019600038B502688D4B9A4200D038BD8C498D48FD
:101970000DF056F9A0B18A498A48FFF7ABFE8A4BB1
:1019800083ED140A874C4FF480652A4600212046D7
:101990000CF02EFF2A462146844806F0C9FFE4E7F2
:1019A000834980480DF03CF938B181497D48FFF703
:1019B00091FE7D4B83ED260AE4E77E4979480DF0E0
:1019C0002FF938B17A497748FFF784FE764B83EDDB
:1019D000270AD7E7784973480DF022F988B176498C
:1019E0007048FFF777FE704B83ED340A83ED260ACB
:1019F000B7EE007AC7EE007AC3ED377AC3ED297AE5
:101A0000C0E76E4967480DF00BF9B8B16B496548FE
:101A1000FFF760FE644B83ED350A83ED270AD3EDB3
:101A2000346AF7EE007A87EEA67A83ED377AD3ED43
:101A3000266A87EEA67A83ED297AA3E7604959489A
:101A40000DF0EEF838B15E495648FFF743FE5648B0
:101A50000BF0BEFE96E75B4952480DF0E1F838B155
:101A600058495048FFF736FE4F480BF0ADFE89E766
:101A700055494C480DF0D4F838B153494948FFF75F
:101A800029FE494B83ED7D0A7CE7504945480DF01E
:101A9000C7F838B14D494348FFF71CFE424B83ED70
:101AA000530A6FE74A493F480DF0BAF838B1484940
:101AB0003C48FFF70FFE3C4B83ED450A62E7454982
:101AC00038480DF0ADF838B142493648FFF702FE0C
:101AD000354B83ED460A55E73F4932480DF0A0F8F3
:101AE00038B13D492F48FFF7F5FD2F4B83ED690ACB
:101AF00048E73A492B480DF093F838B1374929485F
:101B0000FFF7E8FD284B83ED5A0A3BE734492548A7
:101B10000DF086F838B132492248FFF7DBFD224B41
:101B200083ED5B0A2EE72F491E480DF079F838B196
:101B30002C491C48FFF7CEFD1B4B83ED7D0A21E7A6
:101B4000294918480DF06CF838B127491548FFF7B6
:101B5000C1FD154B83ED950A14E7244911480DF09A
:101B60005FF800283FF40EAF20490E48FFF7B2FDA2
:101B70000D4B93F8FC32032B09D003230A4A82F859
:101B8000FC32032B05D008480BF0CAFDFAE604230B
:101B9000F4E710460BF0A4FDF4E600BF0048004057
:101BA000403F0108F00C0020347200201413002084
:101BB000443F01084C3F0108543F01085C3F0108C5
:101BC000643F01086C3F0108743F0108803F010831
:101BD000883F0108903F0108983F0108A43F010891
:101BE000AC3F0108B43F0108C43F0108D03F0108E1
:101BF00000B583B0124B9A6C42F004029A649A6C5E
:101C000002F004020092009A9A6C42F001029A6477
:101C10009B6C03F001030193019B002205210B2023
:101C200002F074FA0B2002F0A9FA002205210C2020
:101C300002F06CFA0C2002F0A1FA03B05DF804FB8C
:101C4000001002402DE9F0438DB000240794089461
:101C500009940A940B94554BDA6C42F00402DA644E
:101C6000DA6C02F004020192019ADA6C42F020026E
:101C7000DA64DA6C02F020020292029ADA6C42F024
:101C80004002DA64DA6C02F040020392039ADA6CE2
:101C900042F00102DA64DA6C02F001020492049A62
:101CA000DA6C42F00202DA64DA6C02F002020592A7
:101CB000059ADA6C42F00802DA64DB6C03F0080380
:101CC0000693069B3A4E22464EF60801304602F035
:101CD0003CFD224648F220014FF0904002F035FDD5
:101CE000DFF8D49022460421484602F02EFDDFF8AA
:101CF000CC802246C021404602F027FD4EF6080364
:101D000007930125089509940A9407A9304602F023
:101D10002BFC4FF48063079303270897099407A9C6
:101D2000244802F021FC142307930897099407A97B
:101D3000304602F019FCD92307930897099407A9A4
:101D40004FF0904002F010FC48F2200307930895F2
:101D500009940A9407A94FF0904002F005FC41F263
:101D6000073307930897099407A9404602F0FCFB44
:101D70004FF4707307930894099407A9304602F052
:101D8000F3FB04230793089509940A9407A948468E
:101D900002F0EAFBC0230793089509940A9407A967
:101DA000404602F0E1FB0DB0BDE8F08300100240B8
:101DB0000008004800180048000C004800040048D3
:101DC00008B50268034B9A4200D008BD00F026FC1B
:101DD000FBE700BF0050014072B6FEE700B595B0CA
:101DE0003822002106A80CF003FD0020019002908B
:101DF00003900490059003F0A5FC212306934FF473
:101E00008033079301230C9302230D9303220E9238
:101E10000F9354221092119306221292139306A844
:101E200003F04AFD90B90F2301930323029300238B
:101E300003930493059304210DEB010003F0F2FFDB
:101E400030B904F033F915B05DF804FBFFF7C4FFB7
:101E5000FFF7C2FF08B500F0D2FBFFF7BFFFFFF7A7
:101E6000F1FEFFF7C5FEFFF7E1F9FFF739FA00F0E1
:101E700029FA00F00DF800F031F800F0CBFA0AF082
:101E800063FA08F0D7FBFFF735FC08F0E5FBFEE747
:101E900008B51048104B03604FF482734360002371
:101EA00083604FF47062C2600361012242614FF4AB
:101EB000007282612022C261036243628362072250
:101EC000C2620363436304F0DCFB00B908BDFFF7A3
:101ED00083FFFBE7F01000200030014008B51048F8
:101EE000104B03604FF482734360002383604FF410
:101EF0007062C2600361012242614FF4007282612C
:101F00002022C2610362436283620722C2620363CA
:101F1000436304F0B6FB00B908BDFFF75DFFFBE7C4
:101F200054110020003C004000B58BB00023059305
:101F300006930793089309930368234A934205D0B5
:101F4000224A934220D00BB05DF804FB204B1A6E5E
:101F500042F480521A661A6E02F480520192019A7B
:101F6000DA6C42F00202DA64DB6C03F002030293E3
:101F7000029B38230593022306930523099305A9A1
:101F8000144802F0F1FADEE7114B9A6D42F4004278
:101F90009A659A6D02F400420392039ADA6C42F059
:101FA0000402DA64DB6C03F004030493049B4FF433
:101FB000A0530593022306930623099305A9064817
:101FC00002F0D2FABFE700BF00300140003C004001
:101FD00000100240000400480008004800B583B02B
:101FE0000E4B1A6E42F001021A661A6E02F00102DE
:101FF0000092009A9A6D42F080529A659B6D03F0B0
:1020000080530193019B00220F216FF0010002F029
:102010007DF803F01DFC03B05DF804FB00100240E6
:1020200030B589B004461E4B1A6E42F480121A660F
:102030001B6E03F480130193019B02A903A804F013
:1020400017F804F003F803461648A0FB03239B0C83
:10205000013B1548154A026040F2E732C260436016
:1020600000230361836005F04BF8054610B1284654
:1020700009B030BD0C4804F087FE05460028F6D1B3
:102080004E2002F07BF80F2C01D90125EFE700224A
:1020900021464E2002F03AF8054B1C60E7E700BFEE
:1020A0000010024083DE1B43B811002000500140A5
:1020B000B000002008B504F003F8FEE7FEE7FEE7F5
:1020C000FEE7FEE77047000008B5024802F0E9F9B4
:1020D00008BD00BFB412002008B5024802F0E1F9C3
:1020E00008BD00BF5412002008B5034800F0B6FC3C
:1020F000024800F0B3FC08BD080C0020740C00205E
:1021000008B5024803F0D6F808BD00BF2C6C0020CB
:1021100008B5024805F0A8FD08BD00BF1413002053
:1021200008B5024804F07FFE08BD00BFB8110020CA
:102130000120704708B50CF031FB162303604FF007
:10214000FF3008BD08B54FF0FF31FFF7F3FFFEE7A2
:1021500070B50C461646002506E0AFF30080214618
:1021600001F8010B01350C46B542F6DB304670BD77
:1021700070B50C461646002504E014F8010B00F07B
:1021800005FA0135B542F8DB304670BD4FF0FF303F
:1021900070474FF400534B60002070470120704798
:1021A0000020704710B503460C4A0D490D480068E1
:1021B00040B10C4800680344521A934206D8094AB9
:1021C000136010BD0748084C0460F2E70CF0E6FA13
:1021D0000C2303604FF0FF30F3E700BF0000022044
:1021E0000008000004120020A0750020034AD2F865
:1021F000883043F47003C2F88830704700ED00E087
:102200000268094B9A4200D0704782B003F56443DC
:102210001A6E42F400621A661B6E03F400630193A7
:10222000019B02B0704700BF002C0140F0B589B09F
:1022300000230393049305930693079302681F4BAF
:102240009A4201D009B0F0BD03F56443DA6C42F064
:102250000202DA64DA6C02F002020192019ADA6C8C
:1022600042F00102DA64DB6C03F001030293029B8B
:102270004FF4C04303930225049506260796104F9A
:1022800003A9384602F070F94FF400430393049514
:102290000024059406940423079303A9384602F00A
:1022A00063F94FF4E063039304950594069407964D
:1022B00003A94FF0904002F057F9C3E7002C01400A
:1022C0000004004810B59CB00024189419941A9486
:1022D0001B941594169417940E940F9410941194C3
:1022E0001294139414943422214601A80CF080FA1D
:1022F0004648474B036044602023836041F26803F3
:10230000C3604FF48073036101234361846104F06F
:10231000F7FE00285ED14FF48053189318A93B486C
:1023200005F046F8002858D1384804F019FF002875
:1023300056D17023159300231693179315A933488C
:1023400005F0D6FA00284ED160230E9300220F929A
:10235000109211921292139214920EA92B4804F02B
:102360007DFF002842D104220EA9284804F076FF00
:1023700000283ED108220EA9244804F06FFF00284F
:102380003AD170230E9341F25E030F930C220EA9F3
:102390001E4804F063FF002831D10023019302930B
:1023A00003931422049205934FF40052069207936C
:1023B000089309934FF000720A920B930C930D93BC
:1023C00001A9124805F0EAFAE0B91048FFF72EFF1C
:1023D0001CB010BDFFF700FD9DE7FFF7FDFCA3E774
:1023E000FFF7FAFCA5E7FFF7F7FCADE7FFF7F4FC12
:1023F000B9E7FFF7F1FCBDE7FFF7EEFCC1E7FFF738
:10240000EBFCCAE7FFF7E8FCDFE700BF081200209B
:10241000002C014008B51748174B0360174B436069
:1024200000238360C36003610C2242618361C36146
:1024300003624362836206F05DF970B900210D48C2
:1024400006F02CFA60B900210A4806F04CFA50B99F
:10245000084806F004FA48B908BDFFF7BDFCEDE7EF
:10246000FFF7BAFCEFE7FFF7B7FCF1E7FFF7B4FCC3
:10247000F2E700BF141300200048004000093D00AF
:1024800030B59DB0044600211791189119911A9109
:102490001B91542202A80CF0ABF92268344B9A42EB
:1024A00001D01DB030BD0423029302A803F018FE32
:1024B000002853D12F4B9A6D42F480229A659A6D71
:1024C00002F480220092009ADA6C42F00202DA648E
:1024D000DB6C03F002030193019B4FF440631793FD
:1024E000022318930025199503231A9307231B939E
:1024F00017A9214802F038F82048214B03601D231A
:10250000436010238360C56080230361456185615A
:10251000C561056201F09AFE18BB184BE3679C6227
:102520001848194B03601C23436000238360C36079
:102530008022026143618361C361036201F086FE10
:1025400090B9104BC4F880309C62002205212720EE
:1025500001F0DCFD272001F011FEA2E7FFF73CFCB3
:10256000A8E7FFF739FCD8E7FFF736FCE9E700BF3B
:10257000004800400010024000040048B41200204F
:1025800008000240541200201C00024000B583B035
:1025900001904FF6FF73012201A9034805F0DCFF0B
:1025A000019803B05DF804FB141300200D48854624
:1025B000FFF71CFE0C480D490D4A002302E0D458D9
:1025C000C4500433C4188C42F9D30A4A0A4C00237D
:1025D00001E013600432A242FBD30CF0E5F8FFF7F0
:1025E00039FCFEE70000022000000020E40B002080
:1025F0003C4E0108E80B00209C750020FEE710B55A
:10260000032001F071FD0F20FFF70AFD10B1012436
:10261000204610BD0446FFF7E1FCF9E7034A1368C2
:10262000034909680B441360704700BFA8130020DA
:10263000AC000020014B1868704700BFA8130020B1
:1026400038B50446FFF7F6FF0546B4F1FF3F02D068
:10265000044B1B681C44FFF7EDFF401BA042FAD35C
:1026600038BD00BFAC00002030B583B0002301931B
:10267000002800F032810446C36D13B323689A68C2
:1026800012F0005F05D09A6822F0204222F03F024B
:102690009A602268936813F0805F1FD1936823F0DB
:1026A000104323F03F0343F0805393608C4B1B682F
:1026B0009B098C4AA2FB03239B0901335B00019316
:1026C00009E0FEF79BFE0023236684F85830D5E727
:1026D000019B013B0193019B002BF9D12268936878
:1026E00013F0805F3DD1E36D43F01003E365236E8B
:1026F00043F0010323660120936813F0040300D024
:102700000123E16D11F0100F40F0E080002B40F04C
:10271000DD80E36D23F4817343F00203E365936886
:1027200013F0010F3ED1B2F1A04F1CD06E4B9A4274
:1027300019D06E4B996811F0010100D001216C4B4A
:102740009B6813F0010300D001230B43694989689A
:1027500011F0010100D001210B430CBF0123002324
:1027600012E00020C8E74FF0A0439B6813F001037C
:1027700000D001235C49896811F0010100D00121DA
:102780000B430CBF0123002363B1B2F1A04F6CD007
:10279000554B9A4267D0584963688A6822F47C1284
:1027A00013438B60627FE36B43EA4233E268134377
:1027B000A268134394F8242043EA0243012A56D026
:1027C000E26A22B102F47872216B0A431343216852
:1027D000CD684A4A2A401343CB602268136923F02C
:1027E0004063616B0B4313612268936813F0080325
:1027F00000D0012343BB217F94F838305B0043EACB
:102800008131D36823F4804323F002030B43D36068
:102810002369002B30D02268136943F4803313619D
:102820002268D2F8C03023F47F5323F03F0321699C
:102830000B43C2F8C03094F84030012B2BD02268F3
:10284000136923F0010313616369012B35D02268FA
:10285000136B23F00F031363E36D23F0030343F0C3
:102860000103E36537E0264996E7254994E7A26A24
:10287000013A43EA4243A3E72268136923F4803311
:1028800013612268D2F8C03023F47F5323F03F0352
:10289000C2F8C030CFE721680B6923F4FF6323F04F
:1028A0000403626CA56C2A43E56C2A43256D2A4318
:1028B000134343F001030B61C6E721680B6B23F060
:1028C0000F03226A013A13430B63C5E7E36D43F03C
:1028D0001003E365012003B030BD0120FBE700BF1A
:1028E000A8000020632D3E050001005000040050A8
:1028F0000005005000060050000700500740F0FFA0
:10290000000300502DE9F04104460E460368B3F180
:10291000A04F1ED04B4A934218D04B4A976807F0FD
:102920001F07A569082D1BD0AFB1052F13D0092FA4
:1029300011D0B3F1A04F3AD0424A934235D0424B26
:102940009B6813F4604F34D1042509E002F500724E
:10295000E4E73E4AE2E7DB6813F0010F1FD10425EC
:10296000FFF768FE804623681A682A4227D1B6F12D
:10297000FF3FF8D0FFF75EFEA0EB0800B04201D8A1
:10298000002EF0D123681B682B42ECD1E36D43F09D
:102990000403E365002384F8583003204DE0E36D21
:1029A00043F02003E365012047E0284BC8E7274BAD
:1029B000C6E7E36D43F02003E36501203DE0E26DEF
:1029C00042F40072E265DA6812F4406F11D1627F5E
:1029D0007AB91A6812F0080F0BD0E26D22F48072F7
:1029E000E265E26D12F4805F03D1E26D42F0010214
:1029F000E265144A934210D002F58062934209D0F6
:102A00001A4693420CD05FB1052F09D0092F07D089
:102A1000D26806E0A2F58072F3E74FF0A042F0E73B
:102A2000DA68082D06D012F4804F08D10C221A6003
:102A3000002002E008221A600020BDE8F08100209A
:102A4000FBE700BF000100500007005000030050EA
:102A50000368186C7047704770477047F8B50446B4
:102A600003681E685F68B3F1A04F46D0974A93424F
:102A700041D0974B9D6805F01F0516F0020F10D04E
:102A800017F0020F0DD0E36D13F0100F03D1E36DBB
:102A900043F40063E365204600F003FF236802224D
:102AA0001A6016F0040F02D017F0040F05D116F0CB
:102AB000080F55D017F0080F52D0E36D13F0100F28
:102AC00003D1E36D43F40073E3652368DA6812F41D
:102AD000406F3FD17D4A934214D002F58062934209
:102AE0000DD01A46934210D07DB1052D0DD0092D81
:102AF0000BD0D2680AE0774BBCE7764BBAE7A2F579
:102B00008072EFE74FF0A042ECE7DA6812F4005F62
:102B100020D11A6812F0080F1CD09A6812F0040F26
:102B200010D15A6822F00C025A60E36D23F48073CE
:102B3000E365E36D13F4805F0CD1E36D43F00103B3
:102B4000E36507E0E36D43F01003E365236E43F0B4
:102B5000010323662046FFF77EFF23680C221A60DC
:102B600016F0200F02D017F0200F05D116F0400FFD
:102B700063D017F0400F60D0E36D13F0100F03D156
:102B8000E36D43F40053E3652368DA6C12F4C07F0D
:102B900016D10121DA6812F4406F13D101204B4A9B
:102BA000934214D002F5806293420DD01A469342AC
:102BB00010D07DB1062D0DD0072D0BD0D2680AE0C4
:102BC0000021E7E70020EAE7A2F58072EFE74FF087
:102BD000A042ECE7DA6851B312F0007F03D030B3C3
:102BE00012F4005F23D1196811F0400F1FD012F4C6
:102BF000001F1CD19A6812F0080F10D15A6822F0F9
:102C000060025A60E36D23F48053E365E36D13F4CF
:102C1000807F0CD1E36D43F00103E36507E0E36DD2
:102C200043F01003E365236E43F00103236620465F
:102C3000FEF7AEFD236860221A6016F0800F02D006
:102C400017F0800F36D116F4807F02D017F4807F02
:102C500042D116F4007F02D017F4007F48D116F05D
:102C6000100F20D017F0100F1DD0E36B6BB1002DAB
:102C70004ED02368B3F1A04F48D0144A934243D0BA
:102C8000134B9B6813F4604F0AD0E36D43F48063E9
:102C9000E365236E43F0020323662046FFF7DDFE63
:102CA000236810221A6016F4806F02D017F4806F28
:102CB00034D1F8BDE36D43F48033E3652046FFF77C
:102CC000CBFE236880221A60BDE700BF00010050E0
:102CD0000007005000030050E36D43F40033E36548
:102CE000204600F0DCFD23684FF480721A60B0E7E4
:102CF000E36D43F48023E365204600F0D1FD2368B3
:102D00004FF400721A60AAE70C4BBAE70B4BB8E716
:102D10002368DB6813F0010FC2D0B6E7E36D43F41C
:102D20008043E365236E43F00803236623684FF472
:102D300080621A60204600F0B1FDBAE7000300503F
:102D4000F0B583B00022019290F85820012A00F0DB
:102D500084820346012280F858200568A86810F094
:102D6000040F09D0DA6D42F02002DA65012000225A
:102D700083F8582003B0F0BD4C683035220A920029
:102D800002F00C02A85804F01F0E1F2404FA0EF4DF
:102D900020EA04000C68C4F3846C0CFA0EFC40EAD0
:102DA0000C00A8501868826812F0040200D00122BA
:102DB000846814F0080400D00124002A50D1002CAB
:102DC0004ED18F68B7F1004F00F08B800E68143041
:102DD000720E920002F004028558C6F3045E4FF0B2
:102DE000070C0CFA0EFC25EA0C0C07FA0EF54CEA5F
:102DF000050585501868426922F0004242614D691C
:102E00001868C268C2F3C102520005FA02F20E69E4
:102E1000042E7ED0603050F82670AD4D3D400F68D6
:102E200007F0F8473A43154345F0004540F826506F
:102E30001A680E698869603252F8265025F080754C
:102E4000284342F826001A680D69087F01285DD0E2
:102E5000603252F8250020F00070044342F825400B
:102E60001868826812F0010F17D10A68CD68D0F88F
:102E7000B040C2F3120C24EA0C0405F0180C954D76
:102E800025FA0CF52A40C2F312022243C0F8B02002
:102E9000C868914A904200F0A4800A688F490A42AB
:102EA00000F0D5811968B1F1A04F00F06E818C4817
:102EB000814200F067818B48806800F0E0748A4DA1
:102EC000AA4200F06481894DAA4200F06081884DD9
:102ED000AA4200F08F81874DAA4200F0A381002012
:102EE00045E70D6814306A0E920002F0040286581D
:102EF000C5F30455072707FA05F526EA05058550A9
:102F00001868426942F00042426178E74FF000746D
:102F10009EE7026E046EC4F384640A68C2F312056D
:102F200085BBC2F38462944234D01C68626E606ECA
:102F3000C0F384600A68C2F3120585BBC2F38462E1
:102F4000904234D01C68A26EA06EC0F384600A6800
:102F5000C2F3120585BBC2F38462904234D01C6870
:102F6000E26EE06EC0F384600A68C2F3120585BBAE
:102F7000C2F3846290427FF473AFE26E22F00042AB
:102F8000E2666DE792FAA2F212B1B2FA82F2CAE7F1
:102F90002022C8E7026E22F000420266C5E792FADC
:102FA000A2F212B1B2FA82F2CAE72022C8E7626E38
:102FB00022F000426266C5E792FAA2F212B1B2FABA
:102FC00082F2CAE72022C8E7A26E22F00042A2667F
:102FD000C5E792FAA2F212B1B2FA82F2CAE720224F
:102FE000C8E71C680A68C2F31205002D38D1900E9C
:102FF000013000F01F0009288CBF002001200028AC
:103000007AD0002D3BD1900E0130800600F0F840C0
:10301000002D40D1960E013606F01F070126BE4056
:103020003043002D45D1920E013202F01F0202EB17
:10303000420212050243886804F11406550EAD00E1
:1030400005F004057459C2F304524FF0070C0CFA52
:1030500002FC24EA0C0C90404CEA000070511CE782
:1030600092FAA2F048B1B0FA80F0013000F01F00EF
:1030700009288CBF00200120C1E72020F5E792FA43
:10308000A2F030B1B0FA80F00130800600F0F840D4
:10309000BEE72020F8E792FAA2F646B1B6FA86F625
:1030A000013606F01F06012707FA06F6B8E72026C4
:1030B000F6E792FAA2F242B1B2FA82F2013202F0DB
:1030C0001F0202EB42021205B4E72022F6E700BF1E
:1030D00000F0FF03FFFF070000007F4000000880B2
:1030E0000001005000070050000021C31000C090F4
:1030F000000052C7000084CBCDB9900E013080068D
:1031000000F0F840FDB9960E013606F01F070126C3
:10311000BE4030432DBB920E013202F01F0202EB83
:1031200042021E3A120542F00072024383E792FA0D
:10313000A2F030B1B0FA80F00130800600F0F84023
:10314000E0E72020F8E792FAA2F646B1B6FA86F652
:10315000013606F01F06012707FA06F6D9E72026F2
:10316000F6E792FAA2F25AB1B2FA82F2013202F012
:103170001F0202EB42021E3A120542F00072D4E72F
:103180002022F3E700F5007096E6354894E610F447
:10319000000F7FF49CAEB1F1A04F04D0314A9142B0
:1031A00001D00020E3E5B1F1A04F19D02E4A9142A1
:1031B00014D02E4944F400048A6822F0E0721443CB
:1031C0008C602B4A126892092A49A1FB02129209CB
:1031D000013202EB42029200019206E02049E9E747
:1031E0001F49E7E7019A013A0192019A002AF9D1B1
:1031F0000020BCE510F0807F7FF46DAEB1F1A04FF0
:103200000ED0194A914209D0184944F080748A6856
:1032100022F0E07214438C600020A8E51049F4E726
:103220000F49F2E710F4800F13D10F4A914212D0E8
:10323000B1F1A04F09D00D4844F48002816821F01B
:10324000E0710A438260002091E50548F4E7002020
:103250008DE500208BE5002089E502208AE500BF8E
:10326000000300500006005000010050000700500D
:10327000A8000020632D3E0530B583B000230193E4
:1032800003689A6812F0010F63D104469968324AC4
:10329000114220D19A6822F0004222F03F0242F00F
:1032A00001029A600368B3F1A04F20D02B4A9342E9
:1032B0001BD02B4B9B6813F4000F20D0294B1B68AD
:1032C0009B09294AA2FB03239B09013303EB430318
:1032D0009B00019310E0C36D43F01003C365036EC0
:1032E00043F001030366012034E0204BE2E71F4B6B
:1032F000E0E7019B013B0193019B002BF9D1FFF714
:1033000099F9054623681A6812F0010F1FD19A68CF
:1033100012F0010F07D19A6822F0004222F03F021A
:1033200042F001029A60FFF785F9431B022BE9D9AD
:1033300023681B6813F0010FE4D1E36D43F0100321
:10334000E365236E43F001032366012002E00020C1
:1033500000E0002003B030BD3F00008000010050BD
:1033600000070050A8000020632D3E050003005018
:1033700038B504460368B3F1A04F5DD0444A934288
:1033800057D0444A956805F01F059B6813F0040F59
:103390007AD194F85830012B78D0012384F8583032
:1033A0002046FFF769FF00286AD1E36D23F47063BC
:1033B00023F0010343F48073E3652368344A9342A6
:1033C0003FD002F58062934238D01A46934200D033
:1033D0001DB9E26D22F48012E265E26D12F4805FA5
:1033E00032D0226E22F0060222661C221A600023CE
:1033F00084F858302268264B9A422BD003F580631C
:103400009A4224D013469A4227D035B3052D24D0B2
:10341000092D22D0E26D42F48012E265DB6813F0E0
:10342000007F32D0E36D23F4405343F48053E365CF
:103430002BE002F50072A5E7174AA3E7A2F5807218
:10344000C4E74FF0A042C1E700222266CDE7A3F512
:103450008073D8E74FF0A043D5E7D36813F0007F1F
:1034600005D0E36D23F4405343F48053E365936840
:1034700023F0004323F03F0343F00403936004E090
:10348000002384F8583000E0022038BD0220FCE719
:1034900000010050000700500003005038B50446FA
:1034A0000268936813F0020300D00123916811F0C1
:1034B000010F39D0002B39D1936803F00D03012B94
:1034C00009D0E36D43F01003E365236E43F001037D
:1034D0002366012029E0936823F0004323F03F0393
:1034E00043F002039360236803221A60FFF7A2F8F7
:1034F000054623689B6813F0010F13D0FFF79AF875
:10350000401B0228F5D923689B6813F0010FF0D007
:10351000E36D43F01003E365236E43F0010323667C
:10352000012002E0002000E0002038BD0020FCE780
:1035300030B583B00023019390F85830012B41D06F
:1035400004460D46012380F85830FFF7A7FF80BBE3
:10355000E36D23F4885323F0020343F00203E36591
:103560002268936823F0404323F03F0305F0804531
:103570002B4343F00043936023689B68002B06DBDA
:10358000E36D23F0030343F00103E36515E0019BC2
:1035900001330193019A0C4B9A42EDD9E36D23F06C
:1035A000120343F01003E365002384F85830012030
:1035B00006E0E36D43F01003E365002384F8583020
:1035C00003B030BD0220FBE701DE040038B504463D
:1035D0000368B3F1A04F5AD0434A934254D0434AB0
:1035E000956805F01F059A6812F0080F77D1DA6820
:1035F000DB6C13F4C07F01D1002A4ADA94F858300A
:10360000012B6ED0012384F858302046FFF734FE9A
:10361000002860D1E36D13F4807F40D0236E23F047
:1036200008032366E36D23F4405323F0010343F4BE
:103630008053E36523682C4A934236D002F58062BA
:1036400093422FD01A46934200D01DB9E26D22F466
:103650008012E26560221A60002384F858302368E3
:10366000214A934227D002F58062934220D01A4625
:10367000934223D015B3062D20D0072D1ED0E36D25
:1036800043F48013E3652BE002F50072A8E7184AC3
:10369000A6E7E36D43F02003E365012020E000236B
:1036A0002366BFE7A2F58072CDE74FF0A042CAE7DC
:1036B000A2F58072DCE74FF0A042D9E7DA6812F099
:1036C000007F0DD19A6822F0004222F03F0242F0C2
:1036D00008029A6004E0002384F8583000E00220D9
:1036E00038BD0220FCE700BF000100500007005079
:1036F0000003005038B504460368B3F1A04F73D0FF
:10370000554A93426DD0554A956805F01F059A6851
:1037100012F0080F40F09B80DA68DB6C13F4C07F76
:1037200001D1002A62DA94F85830012B00F0918020
:10373000012384F858302046FFF79EFD002840F012
:103740008280E36D13F4807F56D0236E23F008034C
:103750002366E36D23F4405323F0010343F48053C5
:10376000E36523683C4A93424CD002F58062934261
:1037700045D01A46934200D01DB9E26D22F4801262
:10378000E26560221A60002384F858302368DA6802
:1037900012F4001F03D05A6842F480625A60A36991
:1037A000082B32D02268536823F04003536022680C
:1037B000536843F0200353602368274A934232D072
:1037C00002F5806293422BD01A4693422ED06DB3FD
:1037D000062D2BD0072D29D0E36D43F48013E3652C
:1037E00036E002F500728FE71D4A8DE7E36D43F086
:1037F0002003E36501202BE000232366A9E7A2F55F
:103800008072B7E74FF0A042B4E72268536823F014
:10381000200353602268536843F040035360CBE7B2
:10382000A2F58072D1E74FF0A042CEE7DA6812F03D
:10383000007F0DD19A6822F0004222F03F0242F050
:1038400008029A6004E0002384F8583000E0022067
:1038500038BD0220FCE700BF000100500007005007
:103860000003005040F2152399420FD040F21B3361
:10387000994207D040F20F1399420BD00368D3F856
:10388000800070470368D3F88C0070470368D3F852
:10389000880070470368D3F884007047704770470A
:1038A00070477047F0B583B003460022019240692B
:1038B00093F85820012A00F01F83012283F8582032
:1038C000A8B10A6A012A12D0986E002840F0CD8073
:1038D0009A6600225A668C6A002C00F0C3800A6A3D
:1038E000013A04F07C042243CC6A1443BEE04A68E7
:1038F000092A00F097801A68906810F0080F10D11C
:1039000091F82500002840F0D080D06820F44010C5
:1039100091F8265091F82440240544EA4554204368
:10392000D0601C68A26812F0040200D00122A568D1
:1039300015F0080500D00125002A40F06181002D16
:1039400040F0B6818A6A1AB1CA6A002A40F0BC8087
:1039500091F82520012A00F0B180E26822F000727F
:10396000E260002091F83020012A00F0BC801C6841
:10397000226922F0020222618A68B2F1004F00F04F
:10398000BE801C680E6804F1140C770EBF0007F0AF
:1039900004075CF80740C6F304564FF0070E0EFA12
:1039A00006FE24EA0E04B24022434CF807201C68AD
:1039B000626922F0004262614C691E68F268C2F3DB
:1039C000C102520004FA02F2D1F810C0BCF1040F97
:1039D00000F0AF80603656F82C40AB4F27400C68A3
:1039E00004F0F8442243174347F0004746F82C7090
:1039F0001A680F698C69603252F8276026F0807669
:103A0000344342F827401A680E690C7F012C00F0FD
:103A10008D80603252F8264024F00074254342F82D
:103A20002650EEE08C6ABCB10868820E520202F4A5
:103A3000785204F07C042243C86A02431C68E06C9C
:103A400020F07B4020F46F0020F43F4020F0FF0086
:103A50001043E0645A664EE70A68920E520202F47E
:103A60007852EBE70A6A541E00E000240868C0F3AD
:103A700084604A6802F01F0200FA02F22243986E44
:103A8000013898665C6E22435A6600287FF433AF93
:103A90001C68E06C20F07B4020F46F0020F43F4075
:103AA00020F0FF000243E26425E7D06820F44010D4
:103AB00091F8264040EA4450D06032E7E26842F094
:103AC0000072E26000204DE791F82500012805D042
:103AD000E26822F00072E260002043E7DA6D42F013
:103AE0002002DA653EE71E68326922F4FF724C6BF1
:103AF0008F6B3C43224342F0020232613CE71C6878
:103B00000E681434720E920002F00402A758C6F335
:103B100004564FF0070C0CFA06F627EA0606A650E4
:103B20001C68626942F00042626145E74FF000752F
:103B30006FE7326E346EC4F384640A68C2F3120510
:103B40007DBBC2F38462944233D01D686A6E6C6E92
:103B5000C4F384640A68C2F312067EBBC2F38462B3
:103B6000944233D01D68AA6EAC6EC4F384640A68B4
:103B7000C2F312067EBBC2F38462944233D01D6846
:103B8000EA6EEC6EC4F384640A68C2F312067EBB6C
:103B9000C2F38462944234D1EA6E22F00042EA66B3
:103BA0002FE092FAA2F212B1B2FA82F2CBE720220F
:103BB000C9E7326E22F000423266C6E792FAA2F2FC
:103BC00012B1B2FA82F2CBE72022C9E76A6E22F084
:103BD00000426A66C6E792FAA2F212B1B2FA82F223
:103BE000CBE72022C9E7AA6E22F00042AA66C6E708
:103BF00092FAA2F212B1B2FA82F2CBE72022C9E71E
:103C000000201D68AA6812F0010F17D10A68CE685B
:103C1000D5F8B040C2F3120724EA070406F0180CE6
:103C20001A4E26FA0CFC02EA0C02C2F312022243DC
:103C3000C5F8B020CC68164A94423BD00A681549B2
:103C40000A421CD01968B1F1A04F00F0F480124C68
:103C5000A14200F0ED80114CA46804F0E075104E14
:103C6000B24200F0EA800F4EB24200F0E6800E4E03
:103C7000B24200F013810D4EB24200F026810022C4
:103C800083F8582003B0F0BD00F0FF03FFFF0700EA
:103C900000007F4000000880000100500007005035
:103CA000000021C31000C090000052C7000084CB68
:103CB0000020A6E71D680A68C2F31206002E37D15D
:103CC000940E013404F01F04092C8CBF002401243D
:103CD000002C65D0002E3AD1940E0134A40604F0D5
:103CE000F844002E3FD1970E013707F01F0C012733
:103CF00007FA0CF73C43002E44D1920E013202F039
:103D00001F0202EB4202120522438C681435560E44
:103D1000B60006F00406AF59C2F304524FF0070C88
:103D20000CFA02FC27EA0C0794403C43AC5185E7AF
:103D300092FAA2F44CB1B4FA84F4013404F01F04F2
:103D4000092C8CBF00240124C2E72024F5E792FA55
:103D5000A2F434B1B4FA84F40134A40604F0F844B3
:103D6000BFE72024F8E792FAA2F74FB1B7FA87F736
:103D7000013707F01F074FF0010C0CFA07F7B9E7FE
:103D80002027F5E792FAA2F242B1B2FA82F20132AA
:103D900002F01F0202EB42021205B5E72022F6E70D
:103DA000D6B9940E0134A40604F0F84406BB970E6D
:103DB000013707F01F0C012707FA0CF73C4336BB0D
:103DC000920E013202F01F0202EB42021E3A12056D
:103DD00042F00072224398E792FAA2F434B1B4FAA6
:103DE00084F40134A40604F0F844DFE72024F8E763
:103DF00092FAA2F74FB1B7FA87F7013707F01F071A
:103E00004FF0010C0CFA07F7D8E72027F5E792FAF4
:103E1000A2F25AB1B2FA82F2013202F01F0202EBB0
:103E200042021E3A120542F00072D3E72022F3E765
:103E300004F5007410E7314C0EE714F4000F7FF422
:103E400016AFB1F1A04F03D02D4A91427FF417AFC6
:103E5000B1F1A04F19D02B4A914214D02A4945F410
:103E600000058A6822F0E07215438D60274A1268C7
:103E700092092749A1FB0212920902EB4202920029
:103E80001832019206E01D49E9E71C49E7E7019A6B
:103E9000013A0192019A002AF9D1F0E614F0807FEC
:103EA0007FF4E9AEB1F1A04F0DD0164A914208D08F
:103EB000154945F080758A6822F0E07215438D60DF
:103EC000DDE60E49F5E70D49F3E714F4800F7FF4C2
:103ED000D6AE0C4A91423FF4D2AEB1F1A04F08D019
:103EE000094945F480058A6822F0E07215438D6027
:103EF000C5E601F54071F4E70220C3E60003005077
:103F0000000600500001005000070050A8000020EB
:103F1000632D3E0590F85820012A00F0D68010B499
:103F20009DB00346012280F8582000221892199271
:103F30000068B0F1A04F47D0654A904247D00022B8
:103F40000192019A002A46D0926812F0040200D031
:103F50000122846814F0040F40F0A780002A40F08A
:103F6000A480B0F1A04F42D05A4A90423CD05A4A65
:103F7000086800285CD0906820F460404C6893F892
:103F800038C044EA4C34204390601868B0F1A04F28
:103F90002FD0504CA0422CD04D48846814F001041E
:103FA00000D001244D48806810F0010000D00120AD
:103FB00020434B4CA46814F0010400D0012420439A
:103FC0000CBF0120002025E0424A0192B9E702F52A
:103FD00080720192B5E7DA6D42F02002DA650022C4
:103FE00083F85820012068E002F50072C0E73D4ADE
:103FF000BEE74FF0A040806810F0010000D0012023
:10400000344CA46814F0010400D0012420430CBFF8
:1040100001200020002854D0906820F4716020F026
:104020000F000C688968214308439060002041E03C
:10403000916821F4604191601968B1F1A04F1AD0E4
:104040002448814217D02249886810F0010000D02E
:1040500001202249896811F0010100D001210143AA
:104060001F48806810F0010000D0012001430CBF00
:104070000121002110E04FF0A041896811F00101F9
:1040800000D001211348806810F0010000D0012009
:1040900001430CBF01210021A9B1916821F4716194
:1040A00021F00F019160002004E0DA6D42F020025F
:1040B000DA650120002283F858201DB05DF8044B1A
:1040C00070470020F6E70020F4E70220704700BFA9
:1040D000000400500001005000070050000500508F
:1040E0000006005000030050074AD36823F4E06341
:1040F0001B041B0C000200F4E060034343F0BF63A9
:1041000043F40033D360704700ED00E000B5194B75
:10411000DB68C3F30223C3F1070CBCF1040F28BF13
:104120004FF0040C03F1040EBEF1060F18D9033B47
:104130004FF0FF3E0EFA0CFC21EA0C0199400EFAFA
:1041400003F322EA0303194300280BDB0901C9B278
:1041500000F1604000F5614080F800135DF804FB59
:104160000023E5E700F00F000901C9B2024B195422
:10417000F4E700BF00ED00E014ED00E0002807DBED
:1041800000F01F02400901239340024A42F8203008
:10419000704700BF00E100E030B4C46C056D65609D
:1041A000446D14B1846DC56D6560446C04F01F0CE2
:1041B000012404FA0CF4056C6C6004686360836885
:1041C000102B05D0036899600368DA6030BC704733
:1041D00003689A600368D960F8E7000003680C4A36
:1041E000934213D80B49DBB2083B0B4AA2FB0323D3
:1041F000426C22F003020A448264084AC264C3F398
:104200000413012202FA03F3036570470449EAE745
:104210000704024000080240CDCCCCCC800802400C
:10422000200802400379074A1A4492004265064A70
:104230008265013B03F01F03012202FA03F3C36509
:10424000704700BF3F8200104009024000285BD049
:1042500010B5044601682D4B99423DD82C4B0B44B8
:104260002C4AA2FB03231B099B0043642A4B0364D3
:10427000022384F825300A6822F4FF4222F07002FB
:10428000A368E06803432069034360690343A069AE
:104290000343E0690343206A034313430B60204652
:1042A000FFF79CFFA368B3F5804F20D0A36C227961
:1042B0001A60E36C226D5A606368013B032B19D9C5
:1042C00000236365A365E3650020E063012384F8B0
:1042D000253084F8240010BD104B0B440D4AA2FB7E
:1042E00003231B099B0043640D4B0364C0E70023B9
:1042F0006360DBE72046FFF795FF636D00221A60DD
:10430000A36DE26D5A60DFE70120704707040240A9
:10431000F8FFFDBFCDCCCCCC00000240F8FBFDBFC8
:104320000004024038B5044690F82400012841D02A
:10433000012084F8240094F82500C0B2012804D09C
:10434000002384F82430022038BD022084F82500A0
:104350000020E0632568286820F0010028602046DE
:10436000FFF71AFF236BD3B12268136843F00E03E3
:104370001360A36C1A6812F4803F03D01A6842F4E9
:1043800080721A60636D1BB11A6842F480721A6001
:104390002268136843F0010313600020D4E7226809
:1043A000136823F0040313602268136843F00A03C0
:1043B0001360DEE70220C7E7034690F82520D2B25B
:1043C000022A09D00422C2630120012283F8252099
:1043D000002283F82420704701680A6822F00E0248
:1043E0000A60816C0A6822F480720A6001680A68B7
:1043F00022F001020A60426C02F01F01006C0122EF
:104400008A404260DA6C196D51605A6D42B1116890
:1044100021F4807111609A6DD96D51600020D4E74C
:104420000020D2E708B590F82530DBB2022B09D086
:104430000423C363012380F82530002280F8242060
:10444000184608BD0268136823F00E031360026863
:10445000136823F001031360826C136823F48073E4
:104460001360436C03F01F02016C012393404B6007
:10447000C36C026D5A60436D33B11A6822F48072C6
:104480001A60836DC26D5A60012380F825300023C5
:1044900080F82430836B13B198470020D1E70020C7
:1044A000CFE738B5036C196804682568436C03F0DE
:1044B0001F0304229A400A4215D015F0040F12D0AF
:1044C000236813F0200F03D1236823F00403236033
:1044D000436C03F01F02016C042393404B60036B99
:1044E00003B1984738BD02229A400A421CD015F009
:1044F000020F19D0236813F0200F06D1236823F090
:104500000A032360012380F82530436C03F01F0267
:10451000016C022393404B60002380F82430C36A6F
:10452000002BDFD09847DDE7082202FA03F30B42A5
:10453000D8D015F0080FD5D0236823F00E032360E0
:10454000436C03F01F03016C012202FA03F34B607A
:10455000C26380F82520002380F82430436B002BB1
:10456000C0D09847BEE70000F0B583B0002362E0FA
:1045700085685E000324B44025EA0405CC68B44095
:104580002C438460446824EA0C0C4C68C4F3001487
:104590009C4044EA0C0444605EE0DD08083550F8B5
:1045A000256003F007044FEA840C0F2404FA0CF48E
:1045B00026EA040E0C6904FA0CF444EA0E0440F8EE
:1045C000254060E0052400E0002404FA0EF42C43AA
:1045D0000CF1020C554D45F82C40554CA568D443C0
:1045E00025EA02064F6817F4801F01D042EA05064B
:1045F0004F4DAE60ED6804EA05064F6817F4001FE2
:1046000001D042EA05064A4DEE606D6804EA0506EF
:104610004F6817F4003F01D042EA0506444D6E6032
:104620002D682C404E6816F4803F01D042EA050404
:104630003F4A146001330A6832FA03F474D04FF031
:10464000010C0CFA03FC1CEA0202F3D04C6804F0E3
:104650000304013C012C8BD94C6804F00304032CA7
:104660000CD0C4685D004FF0030C0CFA05FC24EA82
:104670000C0C8C68AC4044EA0C04C4604C6804F038
:104680000304022C89D004684FEA430E4FF0030C58
:104690000CFA0EFC24EA0C0C4C6804F0030404FA37
:1046A0000EF444EA0C0404604C6814F4403FC1D09A
:1046B000204C256E45F001052566246E04F00104AA
:1046C0000194019C4FEA930C0CF10205174C54F82D
:1046D000255003F003044FEA840E0F2404FA0EF46D
:1046E00025EA0405B0F1904F3FF46EAF124CA042A2
:1046F00012D004F58064A04210D004F58064A0427A
:104700000ED004F58064A0420CD004F58064A04271
:104710003FF458AF062458E7012456E7022454E733
:10472000032452E7042450E703B0F0BD0000014029
:1047300000040140001002400004004803691942CF
:1047400001D001207047002070470AB18161704795
:104750008162704738B512F4804F43D00468B4F8D2
:10476000503091F800C04FEACC0E1EFA83F3234478
:10477000B3F80244C4F309048B69A34228D31B1B7A
:104780008B618B697BB9056835F82C309BB223F4BB
:10479000804323F0700383F4005343F4004343F059
:1047A000800325F82C3012F0400F0ED002680D78EF
:1047B00032F825309BB223F4E04323F0700343F436
:1047C000004343F0C00322F8253024B9204638BD09
:1047D00000238B61D5E723460A894969006805F003
:1047E0004BF8F3E70468B4F8503091F800C04FEA92
:1047F000CC0E1EFA83F32344B3F80644C4F3090431
:104800008B69A3422FD31B1B8B618B697BB9056816
:1048100035F82C309BB223F4804323F0700383F4EB
:10482000005343F4004343F0800325F82C3012F08A
:10483000400F0FD1026891F800C032F82C309BB2C3
:1048400023F4E04323F0700343F4004343F0C00338
:1048500022F82C30002CB9D023464A8949690068D7
:1048600005F00AF8B2E700238B61CEE7002856D0A6
:1048700010B5044690F891323BB1032384F891328D
:10488000206804F086F8002315E080F8903207F0E5
:104890007BFFF2E703EB830204EBC20201215174B8
:1048A00013740021D17411625162013303EB83024E
:1048B000D200A150DBB220799842EBD8002316E059
:1048C00003EB830204EBC202002182F8511182F84B
:1048D000503182F85311C2F86011C2F8641103EB31
:1048E000830204EBC202C2F868110133DBB29842C2
:1048F000E6D8234653F8040B93E8060004F053F877
:1049000000232373012384F89132A37A012B01D071
:10491000002010BD204600F0FEFE0020F9E7012037
:10492000704790F89032012B0ED010B50446012349
:1049300080F89032006804F023F8206804F092FBBD
:10494000002084F8900210BD0220704770B5054623
:104950000C46164612F0400F00F00A810268B2F8C9
:1049600050300978C80010FA83F31344B3F80224D6
:10497000C2F30902A36993424DD99B1AA361A369AB
:10498000002B64D16378002B48D12A68B2F85030EC
:1049900012FA83F30344B3F80224C2F30902A3F822
:1049A0000224B3F802246FEA42426FEA524292B202
:1049B000A3F8022429686278002A3BD1B1F850306C
:1049C00011FA83F3227803EBC203B3F80624C2F38F
:1049D0000902A3F80624B3F806246FEA42426FEAFC
:1049E000524292B2A3F806242178284607F010FF1D
:1049F00016F4804F40D02A68217832F821309BB2DB
:104A000023F4E04323F0700343F4404343F0800376
:104A100022F8213030E00023A361B0E7012BC9D197
:104A20002A68B2F8503012FA83F303440022A3F844
:104A30000224BFE7012AD7D1B1F8503011FA83F32D
:104A4000217803EBC1030022A3F80624CCE716F477
:104A5000804F0DD0286830F821309BB223F4E0431A
:104A600023F0700343F4404343F0800320F82130E7
:104A700094F82430012B12D02A68217832F82130A2
:104A80009BB223F4E04323F0400383F0300343F46C
:104A9000004343F0800322F82130002070BD636999
:104AA00013446361E3691344E361216A2369994212
:104AB00024D3C91A21626278002A44D12968B1F846
:104AC000502011FA82F2217802EBC102B2F80214EE
:104AD000C1F30901A2F802143E2B1BD9580913F0A7
:104AE0001F0F00D10138B2F8021489B2800280B2DF
:104AF000014341F40041A2F8021426E021B9002349
:104B000084F824301346D6E7002384F82430236247
:104B10000B46D0E74BB9B2F802146FEA41416FEA95
:104B2000514189B2A2F802140FE0590813F0010FA5
:104B300000D00131B2F8020480B2890289B2014387
:104B4000A2F8021401E0012A06D09BB22289616911
:104B5000286804F096FA8FE72968B1F8502011FA16
:104B600082F2217802EBC10299B2A2F80214ECE7BA
:104B70000268B2F850300978C80010FA83F3134481
:104B8000B3F80624C2F30902A36993424ED39B1AD9
:104B9000A361A369002B65D16378002B49D12A68F2
:104BA000B2F8503012FA83F31844B0F80234C3F369
:104BB0000903A0F80234B0F802346FEA43436FEA05
:104BC00053439BB2A0F8023429686278002A3CD192
:104BD000B1F8503011FA83F3227803EBC203B3F833
:104BE0000624C2F30902A3F80624B3F806246FEAE8
:104BF00042426FEA524292B2A3F806242178284634
:104C000007F006FE16F4804F7FF436AF2A6821784D
:104C100032F821309BB223F4E04323F0700343F4D5
:104C2000404343F0800322F8213025E70023A361AD
:104C3000AFE7012BC8D12A68B2F8503012FA83F3DB
:104C400018440023A0F80234BEE7012AD6D1B1F8F7
:104C5000503011FA83F3217803EBC1030022A3F84B
:104C60000624CBE716F4804F0DD1286830F82130A8
:104C70009BB223F4E04323F0700343F4404343F03A
:104C8000800320F8213094F82430012B7FF4F4AE17
:104C9000636913446361E3691344E361216A23692F
:104CA000994224D3C91A216229686278002A43D123
:104CB000B1F8502011FA82F2217802EBC102B2F869
:104CC0000614C1F30901A2F806143E2B1BD958099A
:104CD00013F01F0F00D10138B2F8061489B2800218
:104CE00080B2014341F40041A2F8061426E021B944
:104CF000002384F824301346D6E70023236284F887
:104D000024300B46D0E74BB9B2F806146FEA4141A4
:104D10006FEA514189B2A2F806140FE0590813F066
:104D2000010F00D00131B2F8060480B2890289B2C5
:104D30000143A2F8061401E0012A06D09BB2628961
:104D40006169286804F09DF996E6B1F8502011FADF
:104D500082F2217802EBC10299B2A2F80614EDE7C3
:104D60002DE9F04105462868B0F8443013F4004FAF
:104D700000F08A82B0F84440A3B214F00F0440F06F
:104D8000D88013F0100F69D003889AB213F4006F23
:104D900040F0958012F4004FE5D0038823F07003B3
:104DA0001B051B0D43F0800303802868B0F85030CA
:104DB00095F85021D20012FA83F30344B3F8063475
:104DC000C3F30903C5F86C318BB1D5F8641171B127
:104DD000B5F8562104F050FDD5F86C21D5F86431B2
:104DE0001344C5F864310021284607F005FD2A6800
:104DF000138899B213F4006FB5D101F44051B1F5A5
:104E0000405FB0D0B2F8503012FA83F2B2F80634F4
:104E1000C3F30903A2F80634D5F860313E2B6FD9ED
:104E2000590913F01F0F00D10139B2F806349BB2B3
:104E3000890289B20B4343F40043A2F806342A687E
:104E400013889BB223F4804323F0700383F4405310
:104E500043F4004343F08003138084E703889BB24C
:104E600023F4E14323F070036FEA43436FEA5343B3
:104E70009BB203802968B1F850302A7CD20012FA24
:104E800083F30B44B3F80234C3F30903EB626A6A99
:104E900013446B620021284607F0BAFC2B7B002BE1
:104EA0003FF461AFAB6A002B7FF45DAF2B7B2A68C8
:104EB00043F08003A2F84C3000232B7353E7B0F883
:104EC000503095F85021D20012FA83F30344B3F81E
:104ED0000634C3F30903C5F86C31B5F8562105F55E
:104EE000267104F0C9FC2A68138823F070031B059F
:104EF0001B0D43F080031380284607F075FC32E752
:104F00004BB9B2F806346FEA43436FEA53439BB29E
:104F1000A2F8063493E7590813F0010F00D00131CD
:104F2000B2F8063498B28B029BB20343A2F806345F
:104F300085E730F824309EB213F4004F4ED116F0BE
:104F4000800F3FF410AF04EB8401C90010312944F5
:104F50002A6832F824309BB223F4E14323F0700333
:104F60006FEA43436FEA53439BB222F8243004EBC9
:104F7000840305EBC303DB7C012B00F0E98016F40E
:104F8000807F40F07C812868B0F8503004EB8402C8
:104F900005EBC202167CF20012FA83F30344B3F865
:104FA0000234C3F30903621C02EB820255F832207B
:104FB0009A4240F24B81671C07EB8707D21A45F8EB
:104FC0003720621C02EB820255F83220002A40F0A2
:104FD00044813146284607F01BFCC4E630F82430F3
:104FE00023F070031B051B0D43F0800320F82430D1
:104FF00004EB8401C90001F5A87105EB010804EB7D
:10500000840305EBC30393F85C31002B40D128687F
:10501000B0F8503004EB840205EBC20292F8502144
:10502000D20012FA83F30344B3F80674C7F30907F6
:1050300017BB04EB840305EBC303D3F86C213A449C
:10504000C3F86C21D3F864213A44C3F86421D3F83F
:1050500068313BB104EB840305EBC303D3F8603143
:105060009F4270D204EB840305EBC30393F8501105
:10507000284607F0C1FB62E704EB840105EBC101A0
:105080003B46B1F85621D1F8641104F0F5FBD0E7A6
:1050900004EB840305EBC30393F85331022B33D0A5
:1050A000296804EB840205EBC20292F8500131F842
:1050B00020309BB223F4E04323F0700343F4004319
:1050C00043F0C00321F82030286892F8503130F8BE
:1050D000232012F4804F1ED0B0F85020DB0013FACA
:1050E00082F30344B3F80274C7F30907002FA0D07A
:1050F00004EB840105EBC1013B46B1F85821D1F81E
:10510000641104F0B9FB94E7324641462846FFF7A4
:1051100021FB07468DE7B0F85020DB0013FA82F33D
:105120000344B3F80674C7F30907002F81D004EBDA
:10513000840105EBC1013B46B1F85A21D1F8641155
:1051400004F09AFB75E74146286803F0AEFFF6E6E7
:10515000631C03EB8303DB000022EA5004EB8403AF
:1051600005EBC3031B7F1BB316F0400F3BD004EBD2
:10517000840305EBC3035B7C1BBB2A68B2F8503089
:1051800012FA83F304EB840205EBC202127C03EBF8
:10519000C203B3F80224C2F30902A3F80224B3F84D
:1051A00002246FEA42426FEA524292B2A3F802240A
:1051B00004EB840405EBC404217C284607F028FB9B
:1051C000D1E5012BF4D12A68B2F8503012FA83F3FA
:1051D00004EB840205EBC202127C03EBC203002243
:1051E000A3F80224E4E72A6804EB840305EBC30375
:1051F0005B7CD3B9B2F8503012FA83F304EB84022B
:1052000005EBC202127C03EBC203B3F80624C2F31F
:105210000902A3F80624B3F806246FEA42426FEAB3
:10522000524292B2A3F80624C2E7012BC0D1B2F8D1
:10523000503012FA83F304EB840205EBC202127CB5
:1052400003EBC2030022A3F80624B1E7621C02EBC1
:105250008202D2000027AF50B3E604EB840205EBD4
:10526000C202566A1E445662013404EB840205EB06
:10527000C20254682344536003F017FF73E53246BB
:105280002846FFF763FB6EE50020BDE8F08190F84B
:105290009032012B0CD010B50446012380F89032D7
:1052A0000173006803F0D8FE002084F8900210BD5E
:1052B0000220704710B50446006803F0DEFE10F4CB
:1052C000004F23D110F4806F24D110F4804F32D1DD
:1052D00010F4005F39D110F4805F40D110F4006FFA
:1052E00067D110F0800F40F0818010F4007F40F013
:1052F000AD8010F4807F27D02268B2F844309BB292
:1053000023F480739BB2A2F844301DE02046FFF7DF
:1053100027FD19E02268B2F844309BB223F4806381
:105320009BB2A2F84430204607F083FA00212046C1
:10533000FFF7ADFF08E02268B2F844309BB223F4D7
:1053400080439BB2A2F8443010BD2268B2F84430CA
:105350009BB223F400539BB2A2F84430F4E72268D6
:10536000B2F840309BB223F004039BB2A2F8403065
:105370002268B2F840309BB223F008039BB2A2F837
:10538000403094F8C832012B0CD0204607F074FA54
:105390002268B2F844309BB223F480539BB2A2F847
:1053A0004430D1E7002184F8C812204607F01CFBE6
:1053B000EBE72268B2F840309BB243F00803A2F852
:1053C00040302268B2F844309BB223F400639BB2B1
:1053D000A2F844302268B2F840309BB243F0040394
:1053E000A2F84030204607F037FAADE72268B2F85D
:1053F00044309BB223F080039BB2A2F8443094F86F
:10540000C832FBB92268B2F840309BB243F00403C3
:10541000A2F840302268B2F840309BB243F0080353
:10542000A2F84030012184F8C8122368B3F8543040
:10543000C3F38D0303F03C03C4F8CC32204607F0DD
:10544000D3FA81E7204607F007FA7DE72268B2F831
:1054500044309BB223F400739BB2A2F84430204640
:1054600007F0E1F970E710B50446084611F0800F27
:1054700026D101F0070C0CEB8C0E4FEACE0E0EF588
:10548000A87E04EB0E010CEB8C0C04EBCC0C4FF063
:10549000000E8CF851E100F0070008700A61CB7033
:1054A000022B1DD094F89032012B1CD0012384F8DC
:1054B0009032206803F088FA002084F8900210BD32
:1054C00001F0070C0CEB8C01C900103121440CEBEE
:1054D0008C0C04EBCC0C4FF0010E8CF811E0DAE7E9
:1054E00000230B71DEE70220E9E710B504460A4607
:1054F00011F0800F1FD101F0070000EB8003DB00EB
:1055000003F5A873E11800EB800004EBC000002352
:1055100080F8513102F007020A7094F89032012BA2
:1055200017D0012384F89032206803F034FC002067
:1055300084F8900210BD01F0070000EB8003DB004F
:105540001033E11800EB800004EBC000012343742A
:10555000E0E70220EEE710B501F0070C0CEB8C0140
:10556000C90001F5A8710CEB8C0E00EBCE0ECEF845
:105570006421CEF868310024CEF86C418EF8514198
:105580008EF850C10144006803F08FFD204610BD25
:1055900001F0070101EB810100EBC101D1F86C01C1
:1055A000704738B501F0070C0CEB8C01C9001031C5
:1055B0000CEB8C0E00EBCE0ECEF824200CF1010289
:1055C00002EB820440F8343001258EF83450CEF8D6
:1055D000303000EBC402002454608EF811508EF875
:1055E00010C00144006803F060FD204638BD0B4642
:1055F00001F00702017991422ED310B5044613F051
:10560000800F1DD103EB8301C90001F5A87101448E
:1056100003EB830300EBC303002083F85101012354
:105620008B700A7094F89032012B17D0012384F804
:105630009032206803F09AFC002084F8900210BD9C
:1056400002EB8201C9001031014402EB820300EB3E
:10565000C30301205874E2E7012070470220EEE7FF
:105660000B46017903F00F02914234D310B5044682
:1056700013F0800F21D103F0070202EB8201C90071
:1056800001F5A871014402EB820200EBC202002086
:1056900082F8510100228A7003F007030B7094F81E
:1056A0009032012B19D0012384F89032206803F046
:1056B00082FC002084F8900210BD03F0070202EB88
:1056C0008201C9001031014402EB820200EBC202E8
:1056D00001205074DEE7012070470220ECE711F052
:1056E000800F0BD001F0070101EB8101C9001031DF
:1056F000014452B90A73CB800020704701EB81014D
:10570000C90001F5A8710144F3E701220A730B8176
:105710001B0C4B81F0E7034602680121C0F8D01250
:10572000002083F8C802B2F854309BB20B43A2F8B1
:105730005430B2F854309BB243F00203A2F8543014
:1057400070470000002836D13E4B1B6803F4C0634D
:10575000B3F5806F08D03B4AD2F8803023F48073D1
:10576000C2F8803000207047364AD2F8803023F4E7
:105770008073C2F88030136823F4C06343F400736D
:105780001360314B1B68322202FB03F32F4AA2FB4A
:1057900003239B0C013300E0013B2A4A526912F4B7
:1057A000806F01D0002BF7D1264B5B6913F4806F1B
:1057B00044D100207047B0F5007F08D0214A13681B
:1057C00023F4C06343F480631360002070471D4BD3
:1057D0001B6803F4C063B3F5806F08D0194AD2F890
:1057E000803043F48073C2F8803000207047154A3F
:1057F000D2F8803043F48073C2F88030136823F409
:10580000C06343F4007313600F4B1B68322202FB2A
:1058100003F30E4AA2FB03239B0C013300E0013B80
:10582000084A526912F4806F01D0002BF7D1054B62
:105830005B6913F4806F03D1002070470320704729
:105840000320704700700040A800002083DE1B4347
:10585000024A936843F480439360704700700040AD
:10586000124BDA6802F00302D868C0F30310431C3D
:10587000032A11D00E48B0FBF3F00C4BDB68C3F3E6
:10588000062303FB00F0094BDB68C3F341630133DC
:105890005B00B0FBF3F070470648B0FBF3F0034B3E
:1058A000DB68C3F3062303FB00F0ECE700100240C3
:1058B0000024F40000127A00002800F04F8270B536
:1058C00082B00446036813F0010F37D0A44A9368EE
:1058D00003F00C03D26802F003020C2B23D0082B38
:1058E00023D06368B3F5803F4ED0B3F5A02F51D0DD
:1058F0009B4B1A6822F480321A601A6822F48022C4
:105900001A606368002B52D0FCF794FE0546944B56
:105910001B6813F4003F11D1FCF78CFE401B642878
:10592000F5D9032023E2032AD9D18D4B1B6813F448
:10593000003F03D06368002B00F01282236813F04D
:10594000020F5DD0864A936803F00C03D26802F020
:1059500003020C2B3AD0042B3AD0E368002B75D00D
:105960007F4A136843F480731360FCF763FE0546B7
:105970007B4B1B6813F4806F5FD1FCF75BFE401B11
:105980000228F5D90320F2E1754A136843F4803305
:105990001360B6E703F18043A3F53C331A6842F481
:1059A00080221A601A6842F480321A60A9E7FCF774
:1059B00041FE05466A4B1B6813F4003FBED0FCF75E
:1059C00039FE401B6428F5D90320D0E1022AC2D158
:1059D000634B1B6813F4806F03D0E368002B00F067
:1059E000C1815F4A536823F0FE43216943EA0163A2
:1059F00053605C4B1868FCF713FB002840F0B4813F
:105A0000236813F0080F4CD063699BB3544AD2F853
:105A1000943043F00103C2F89430FCF70BFE0546C6
:105A20004F4BD3F8943013F0020F3AD1FCF702FE3B
:105A3000401B0228F4D9032099E1494A536823F016
:105A4000FE43216943EA01635360D9E7444A13687E
:105A500023F480731360FCF7EDFD0546404B1B6893
:105A600013F4806FCCD0FCF7E5FD401B0228F5D97C
:105A700003207CE13A4AD2F8943023F00103C2F8C3
:105A80009430FCF7D7FD0546354BD3F8943013F02E
:105A9000020F06D0FCF7CEFD401B0228F4D90320EC
:105AA00065E1236813F0040F00F081802C4B9B6D9F
:105AB00013F0805F36D12A4B9A6D42F080529A657E
:105AC0009B6D03F080530193019B0125264B1B68BE
:105AD00013F4807F28D0A368012B39D0052B45D043
:105AE0001F4BD3F8902022F00102C3F89020D3F886
:105AF000902022F00402C3F89020A368002B43D02A
